:10000000F8FF002011040000EB7E0200EB7E0200EE
:10001000EB7E0200EB7E0200EB7E0200EB7E020034
:10002000EB7E0200EB7E0200EB7E0200EB7E020024
:10003000EB7E0200EB7E0200EB7E0200EB7E020014
:10004000EB7E0200EB7E0200EB7E0200EB7E020004
:10040000FFFFFFFFFFFFFFFFFFFFFFFFFEFFFFFFFD
:1004100062B62CF033F8FEE7DAA5DAA5DAA5BBA5BB
:10042000DBA5DAA5DAA5BBA5DAA5DAA5DAA5DAA5F2
:10043000DAA5DAA5DAA5DAA5DAA5DAA5DAA5DAA5C4
:10044000DAA5DAA5DAA5DAA5DAA5DAA5DAA5DAA5B4
:10045000DAA5DAA5DBA5DAA5DAA5DAA5DAA5DAA5A3
:10046000DAA5DAA5DAA5DAA5DAA5DAA5DAA5DAA594
:10047000DAA5BAA5DAA5DAA5DAA5DAA5DAA5DBA5A3
:10048000DAA5DAA5DAA5DAA5DAA5DAA5DAA5DAA574
:10049000DAA5DAA5DAA5DAA5DAA5DAA5DAA5DBA563
:1004A000DAA5DAA5DAA5DAA5DAA5DAA5DAA5DAA554
:1004B000DAA5DAA5DAA5DAA5DAA5DAA5DAA5DAA544
:1004C000DAA5DAA5DBA5DBA5DAA5DAA5DBA5DAA531
:1004D000BAA5BAA5DAA5DAA5DAA5DAA5DAA5DAA564
:1004E000DAA5DAA5DBA5DBA5DAA5DAA5DAA5DAA512
:1004F000DAA5DAA5DAA5DAA5DAA5DBA5DBA5DAA502
:10050000BAA5DAA5DAA5DAA5DAA5DAA5DAA5DAA513
:10051000DBA5DAA5DAA5DAA5DAA5DAA5DAA5DAA5E2
:10052000DAA5DAA5DAA5DAA5BAA5DAA5DAA5DAA5F3
:10053000DAA5DAA5DBA5DBA5DAA5DAA5DAA5DAA5C1
:10054000DAA5DAA5DAA5BAA5DAA5BAA5DAA5DAA5F3
:10055000DAA5DAA5DAA5DAA5DAA5DAA5DAA5DAA5A3
:10056000DAA5DAA5DAA5DAA5DAA5DAA5DAA5DAA593
:10057000DAA5DAA5DAA5DAA5DAA5DAA5DAA5DAA583
:10058000DAA5DAA5DAA5DAA5DAA5DAA5DAA5DAA573
:10059000DAA5DAA5DAA5DAA5DAA5DAA5DAA5DAA563
:1005A000DAA5DAA5DAA5BBA5DAA5DAA5BAA5DAA592
:1005B000DAA5DAA5DAA5DAA5DBA5DBA5DBA5DBA53F
:1005C000DAA5DAA5DAA5DBA5DAA5DAA5DAA5DAA532
:1005D000DAA5DAA5DAA5DAA5DBA5DAA5DAA5DAA522
:1005E000DAA5DAA5DAA5DAA5DAA5DAA5DAA5DAA513
:1005F000DAA5DAA5DAA5DAA59B959B959B959B953F
:100600009B959B959B959B959B959B959B959B956A
:100610009B959B959B959B959B959B959B959B955A
:100620009B959B959B959B959B959B959B959B954A
:100630009B959B959B959B959B959B959B959B953A
:100640009B959B959B959B959B959B959B959B952A
:100650009B959B959B959B959B959B959B959B951A
:100660009B959B959B959B959B959B959B959B950A
:100670009B959B959B959B959B959B959B959B95FA
:100680009B959B959B959B959B959B959B959B95EA
:100690009B959B959B959B959B959B959B959B95DA
:1006A0009B959B959B959B959B959B959B959B95CA
:1006B0009B959B959B959B959B959B959B959B95BA
:1006C0009B959B959B959B959B959B959B959B95AA
:1006D0009B959B959B959B959B959B959B959B959A
:1006E0009B959B959B959B959B959B959B959B958A
:1006F0009B959B959B959B959B959B959B959B957A
:100700009B959B959B959B959B959B959B959B9569
:100710009B959B959B959B959B959B959B959B9559
:100720009B959B959B959B959B959B959B959B9549
:100730009B959B959B959B959B959B959B959B9539
:100740009B959B959B959B959B959B959B959B9529
:100750009B959B959B959B959B959B959B959B9519
:100760009B959B959B959B959B959B959B959B9509
:100770009B959B959B959B959B959B959B959B95F9
:100780009B959B959B959B959B959B959B959B95E9
:100790009B959B959B959B959B959B959B959B95D9
:1007A0009B959B959B959B959B959B959B959B95C9
:1007B0009B959B959B959B959B959B959B959B95B9
:1007C0009B959B959B959B959B959B959B959B95A9
:1007D0009B959B959B959B95BB95BB95BB95BB9519
:1007E000BB959B959B95BB95BB95BB95BB95BB95C9
:1007F000BB95BB95BB95BB95BB95BB95BB95BB9579
:10080000BB95BB95BB95BB95BB95BB95BB95BB9568
:10081000BB95BB95BB95BB95BB95BB95BB95BB9558
:10082000BB95BB95BB95BB959B95BB95BB95BB9568
:10083000BB95BB95BB959A959A959B95BB95BB959A
:10084000BB95BB95BB959B959B959B95BB959B95A8
:10085000BB95BB95BB95BB95BB95BB95BB95BB9518
:10086000BB95BB95BB95BB95BB95BB95BB95BB9508
:10087000BB95BB95BB95BB95BB95BB95BB95BB95F8
:10088000BB95BB95BB95BB95BB95BB95BB95BB95E8
:10089000BB95BB95BB95BB95BB95BB95BB95BB95D8
:1008A000BB95BB95BB95BB95BB959B959B95BB9508
:1008B000BB959B959B95BB95BB95BB95BB95BB95F8
:1008C000BB95BB959B959B959B95BB95BB95BB9508
:1008D000BB95BB95BB95BB959B959B95BB95BB95D8
:1008E000BB95BB959B959B95BB959B959B959B9528
:1008F000BB959B959B959B95BB95BB95BB95BB95D8
:10090000BB95BB95BB95BB95BB95BB95BB95BB9567
:10091000BB95BB95BB95BB95BB95BB95BB95BB9557
:10092000BB95BB95BB95BB95BB95BB959B95BB9567
:10093000BB95BB95BB95BB95BB95BB95BB95BB9537
:10094000BB95BB959B959B95BB95BB95BB95BB9567
:10095000BB959B959B959B959B959A959B95BB95D8
:10096000BB95BB95BB95BB959B959B959B959B9587
:100970009B95BB959B959B95BB95BB95BB95BB9557
:10098000BB95BB95BB95BB959B95BB95BB959B9527
:10099000BB95BB95BB95BB95BB95BB95BB959B95F7
:1009A0009B95BB95BB95BB95BB95BB95BB95BB95E7
:1009B000BB95BB95BB95BB959B959B959B959B9537
:1009C0009B959B959B959B95BB95BB95BB95BB9527
:1009D000BB95BB95BB95BB95BB95BB95BB95BB9597
:1009E000BB95BB95BB959B959B959B95BB95BB95E7
:1009F000BB95BB95BB95BB95BB95BB95BB95BB9577
:100A0000BB95BB95BB95BB95BB95BB95BB95BB9566
:100A1000BB95BB959B959B959B959B959B959B9D0E
:100A20009B9D9B959B959B959B959B959B959B953E
:100A3000BB95BB959B9D9B9DBB9DBB9DBB95BB9D4E
:100A4000BB95BB95BB959B959B959B959B959B95C6
:100A5000BB95BB95BB9DBB9DBB95BB95BB95BB9506
:100A6000BB95BB95BB95BB95BB95BB95BB95BB9506
:100A7000BB95BB95BB95BB95BB95BB95BB95BB95F6
:100A8000BB95BB95BB95BB95BB95BB95BB95BB95E6
:100A9000BB95BB95BB95BB9DBB95BB95BB95BB95CE
:100AA000BB959B959B959B959B959B959B95BB9586
:100AB0009B95BB95BB95BB95BB95BB95BB95BB95D6
:100AC000BB95BB95BB95BB95BB9DBB95BB95BB959E
:100AD000BB95BB95BB95BB95BB95BB95BB95BB9596
:100AE000BB95BB95BB95BB95BB95BB95BB95BB9586
:100AF000BB95BB95BB95BB95BB95BB95BB9DBB9D66
:100B0000BB95BB95BB95BB95BB95BB95BB95BB9565
:100B1000BB95BB95BB95BB9DBB95BB95BB95BB954D
:100B20009B959B959B959B959B95BB95BB95BB95E5
:100B3000BB95BB95BB959B959B959B959B959B95D5
:100B4000BB95BB9D9B9DBB959B959B959B959B95B5
:100B50009B959B959B959B959B95BB95BB95BB95B5
:100B6000BB95BB95BB95BB959B959B9DBB95BB953D
:100B7000BB95BB95BB95BB95BB959B959B959B9555
:100B80009B959B959B95BB95BB95BB95BB95BB9545
:100B9000BB95BB9DBB95BB959B959B959B959B954D
:100BA0009B959B959B959B959B959B95BC95BC9583
:100BB000BC95BC959B959B95BC95BC95BC95BC95EF
:100BC000BC95BC95BC95BC95BC95BC95BC95BC959D
:100BD000BC95BC95BC95BC95BC95BC95BC95BC958D
:100BE000BC95BC95BC95BC95BC95BC95BC95BC957D
:100BF000BC95BC959B959B959B959B959B95BC9512
:100C0000BC959B959B959B959B959B959B959B9543
:100C10009B95BC95BC959C9D9B959C9D9C9D9C9DEE
:100C20009B959B95BC95BC95BC95BC959B959B95C0
:100C3000BC95BC95BC95BC95BC95BC95BC95BC952C
:100C4000BC95BC95BC95BC959B95BC95BC95BC953D
:100C50009B959B959B959B95BC95BC95BC95BC9590
:100C6000BC95BC95BC95BC95BC95BC95BC95BC95FC
:100C70009B95BC95BC95BC95BB95BB959B95BC9530
:100C8000BC9D9B9D7B959B959C959C959C959C95CF
:100C90009C95BC959B959B95BC95BC95BC95BC952E
:100CA000BC959B959B959B959B95BC95BC95BC9540
:100CB000BC95BC95BC95BC959B95BC95BC95BC95CD
:100CC000BC959B959B959C959B95BC959B959B9561
:100CD000BC95BC95BC95BC95BC95BC959B959B95CE
:100CE0009B959B95BC95BC95BC95BC959B959B9500
:100CF0009B959B95BC95BC959B95BC95BC959B95F0
:100D00009B959B959B959B959B959B959B95BC9542
:100D1000BC95BC95BC959B959B959B959B95BB9DC8
:100D20009B9D9B9D9B9D9B959B959B959B959B952B
:100D30009B959B959B959B959C959C959B959B9531
:100D40009B959B95BC95BC959B959B959B959B95E1
:100D5000BC959B959B959B95BC95BC959B959B95B0
:100D60009B959B959B95BC959B95BC959B95BC95A0
:100D7000BC959B959B959B95BC959B959B95BC9590
:100D8000BC95BB95BB95BB959B959B959B95BC9541
:100D9000BC959B959B959B95BC95BC959B959B9570
:100DA0009B959B95BC95BC95BB95BC95BC95BC95FE
:100DB000BB95BB959B95BC95BC95BC95BC95BC95CE
:100DC000BC95BC95BC95BC95BB95BC95BC95BC959C
:100DD0009B959B959B95BB959B959B959B959B9573
:100DE0009B95BC95BB959B959B959B959B959B9542
:100DF000BB959B95BC959B959B959C9D9B9D9C9D18
:100E0000BC95BC95BC95BC95BC95BC95BC95BB955B
:100E1000BB95BB95BC95BC95BB95BC95BC95BC954D
:100E20009B959B959B95BB95BC95BC959B959B95E0
:100E30009B959B959B95BB959B95BC95BB95BB95B1
:100E4000BC95BC95BC95BC95BC95BC959B959B955C
:100E5000BC95BC95BC959B95BB959B959B959B958F
:100E60009B957B959B9D9B959B95BC95BC95BC95B7
:100E70009B95BC95BC959B95BC95BC95BC95BC952C
:100E80009B959B959B959B959B959B95BC959B95C1
:100E90009B95BC95BC95BC95BC95BC95BC95BC95EB
:100EA000BC959B959B959B959B95BC959B95BC955F
:100EB000BC959B95BC959B95BC95BC959B959B952E
:100EC0009B959B959B95BC95BC95BC959B95BC951E
:100ED0009B959B959B959B959B95BC95BB95BB9531
:100EE000BB95BB95BC95BB95BB95BB95BC95BC957F
:100EF000BC95BC959B959B959B959B959B959B9D28
:100F0000BB959C9D9B959C9D9B959B959B959B952F
:100F10009B959B959B959B95BC959B959B959B9530
:100F20009B959B959B95BC95BB95BC95BC959B95BE
:100F30009B959B959B95BB95BC95BC95BB95BB958F
:100F4000BB95BB95BB95BB95BC95BC95BC95BC951D
:100F50009B959B959B959B95BB95BB95BB95BB9591
:100F6000BB95BB95BB95BB95BB95BB95BB95BB9501
:100F7000BB95BB95BB95BB95BB95BB95BB95BB95F1
:100F8000BB95BB95BB95BB95BB95BB95BB95BB95E1
:100F9000BB95BB95BB95BB95BB95BB95BB95BB95D1
:100FA000BB95BB95BB95BB95BB95BB95BB95BB95C1
:100FB0009B959B959B95BB95BB95BB959B959B9551
:100FC000BB95BB95BB95BB95BB95BB959B959B95E1
:100FD000BB95BB95BB959B959B9D9B959B959B9529
:100FE0009B95BB95BB95BB95BB95BB95BB95BB95A1
:100FF000BB95BB95BB95BB95BB95BB95BB95BB9571
:10100000BB95BB95BB95BB95BB95BB95BB959B9580
:101010009B959B959B95BB95BB95BB95BB95BB95B0
:10102000BB95BB95BB95BB95BB95BB959B95BB9560
:10103000BB95BB95BB95BB95BB959B959B959B9590
:101040009B959B959B9D9B95BB95BB95BB959B95B8
:101050009B959B95BB95BB95BB95BB95BB95BB9550
:10106000BB95BB959B959B95BB95BB95BB95BB9540
:10107000BB95BB95BB95BB95BB95BB95BB95BB95F0
:10108000BB959B959B959B959B95BB95BB95BB9560
:10109000BB95BB95BB95BB95BB95BB959B959B9510
:1010A0009B959B95BB95BB95BB95BB95BB95BB9500
:1010B000BB959B959B959B95BB95BB95BB959B9530
:1010C0009B95BB95BB95BB95BB95BB95BB95BB95C0
:1010D000BB95BB95BB959B959B959B959B95BB9D08
:1010E000BB9D9B959B959B9D9B95BB95BB95BB95F0
:1010F000BB95BB95BB95BB95BB95BB959B959B95B0
:101100009B95BB95BB95BB95BB95BB95BB95BB957F
:10111000BB959B959B959B95BB95BB95BB95BB95AF
:10112000BB95BB95BB95BB95BB95BB95BB95BB953F
:101130009B959B959B95BB95BB95BB95BB95BB958F
:101140009B959B959B959B95BB95BB95BB95BB959F
:10115000BB95BB95BB95BB95BB95BB95BB95BB950F
:10116000BB95BB95BB95BB95BB95BB95BB95BB95FF
:101170009B959B959B95BB95BB95BB95BB95BB954F
:10118000BB95BB95BB95BB95BB95BB95BB95BB95DF
:10119000BB95BB95BB95BB95BB959B959B959B952F
:1011A0009B95BB95BB95BB95BB95BB95BB95BB95DF
:1011B000BB95BB95BB95BB9DBB9DBB9DBB9DBB9D87
:1011C000BB95BB95BB959B959B95BB95BB95BB95DF
:1011D000BB95BB95BB95BB95BB95BB95BB95BB958F
:1011E000BB95BB95BB95BB95BB95BB95BB95BB957F
:1011F000BB959B95BB95BB95BB95BB95BB95BB958F
:101200009B959B959B95BB95BB959B959B959B951E
:101210009B959B959B95BB95BB95BB95BB95BB95AE
:101220009B959B9DBB9DBB95BB95BB95BB959B958E
:101230009B959B959B95BB95BB95BB95BB95BB958E
:10124000BB95BB95BB95BB95BB95BB95BB95BB951E
:10125000BB95BB95BB95BB95BB95BB95BB959B952E
:101260009B959B959B959B959B95BB95BB95BB959E
:10127000BB95BB959B959B959B95BB959B959B958E
:101280009B959B95BB95BB95BB95BB95BB95BB951E
:10129000BB95BB95BB95BB95BB95BB959B959B950E
:1012A0009B959B95BB95BB95BB95BB95BB95BB95FE
:1012B000BB95BB95BB959B95BB95BB95BB95BB9DC6
:1012C0009B959B959B959B959B95BB95BB95BB953E
:1012D000BB95BB95BB95BB95BB95BB95BB959B95AE
:1012E0009B959B959B959B95BB95BB95BB95BB95FE
:1012F000BB95BB95BB95BB95BB95BB95BB95BB956E
:10130000BB95BB95BB95BB95BB95BB95BB95BB955D
:10131000BB95BB95BB95BB95BB95BB95BB95BB954D
:101320009B959A959A959B95BB95BB95BB95BB95BF
:10133000BB95BB95BB95BB95BB95BB95BB95BB952D
:10134000BB95BB95BB95BB95BB95BB95BB95BB951D
:101350009B959B959B95BB95BB95BB95BB95BB956D
:10136000BB95BB95BB95BB95BB95BB95BB95BB95FD
:10137000BB95BB95BB95BB95BB959B959A959B954E
:101380009B95BB95BB95BB95BB95BB95BB95BB95FD
:10139000BB95BB95BB95BB959B959B95BB959B952D
:1013A000BB95BB95BB959B959B959B95BB95BB951D
:1013B000BB95BB95BB95BB95BB95BB95BB95BB95AD
:1013C000BB95BB95BB95BB95BB95BB95BB95BB959D
:1013D000BB95BB95BB95BB95BB95BB95BB95BB958D
:1013E0009B959B95BB95BB959B959B959B959B953D
:1013F0009B959A959B95BB95BB95BB95BB95BB95CE
:101400009B959B959B95BB95BB95BB95BB959B95DC
:101410009B959B959B95BB95BB95BB95BB95BB95AC
:10142000BB95BB95BB95BB95BB95BB95BB95BB953C
:10143000BB95BB95BB95BB95BB95BB959B959B956C
:101440009B959B959B959B959B95BB95BB95BB95BC
:10145000BB95BB959B959B959B95BB959B959A95AD
:101460009B959B95BB95BB95BB95BB95BB95BB953C
:10147000BB95BB95BB95BB95BB95BB959B959B952C
:101480009B959B95BB95BB95BB95BB95BB95BB951C
:10149000BB95BB95BB95BB95BB95BB95BB95BB95CC
:1014A0009B959B959B959B959B95BB95BB95BB955C
:1014B000BB95BB95BB95BB95BB95BB95BB95BB95AC
:1014C0009B959A959B959B95BB95BB95BB95BB951D
:1014D000BB95BB95BB95BB95BB95BB95BB95BB958C
:1014E000BB95BB95BB95BB95BB95BB95BB95BB957C
:1014F000BB95BB95BB95BB95BB95BB95BB95BB956C
:101500009B959A959A959B95BB95BB95BB95BB95DD
:10151000BB95BB95BB95BB95BB95BB95BB95BB954B
:10152000BB95BB95BB95BB95BB95BB95BB95BB953B
:101530009B959B959B95BB95BB95BB95BB95BB958B
:10154000BB95BB95BB95BB95BB95BB95BB95BB951B
:10155000BB95BB95BB95BB95BB959B959B959B956B
:101560009B95BB95BB95BB95BB95BB95BB95BB951B
:10157000BB95BB95BB959B959B95BB95BB95BB952B
:10158000BB95BB95BB959B959B95BB95BB95BB951B
:10159000BB95BB95BB95BB95BB95BB95BB95BB95CB
:1015A000BB95BB95BB95BB95BB95BB95BB95BB95BB
:1015B000BB95BB95BB95BB95BB95BB95BB95BB95AB
:1015C0009B959B95BB95BB959B959B959B959B955B
:1015D0009B959B959B95BB95BB95BB95BB95BB95EB
:1015E000BB959B959B95BB95BB95BB95BB959B95DB
:1015F0009B959B959B95BB95BB95BB95BB95BB95CB
:10160000BB95BB95BB95BB95BB95BB95BB95BB955A
:10161000BB95BB95BB95BB95BB95BB95BB959B956A
:101620009B959B959B959B959B95BB95BB95BB95DA
:10163000BB95BB959B959B959B95BB959B959B95CA
:101640009B959B95BB95BB95BB95BB95BB95BB955A
:10165000BB95BB95BB95BB95BB95BB959B959B954A
:101660009B959B95BB95BB95BB95BB95BB95BB953A
:10167000BB95BB95BB95BB95BB95BB95BB95BB95EA
:101680009B959B959B959B959B95BB95BB95BB957A
:10169000BB95BB95BB95BB95BB95BB95BB95BB95CA
:1016A0009B959B959B959B95BB95BB95BB95BB953A
:1016B000BB95BB95BB95BB95BB95BB95BB95BB95AA
:1016C000BB95BB95BB95BB95BB95BB95BB95BB959A
:1016D000BB95BB95BB95BB95BB95BB95BB95BB958A
:1016E0009B959B959B959B95BB95BB95BB95BB95FA
:1016F000BB95BB95BB95BB95BB95BB95BB95BB956A
:10170000BB95BB95BB95BB95BB95BB95BB95BB9559
:101710009B959B959B95BB95BB95BB95BB95BB95A9
:10172000BB95BB95BB95BB95BB95BB95BB95BB9539
:10173000BB95BB95BB95BB95BB95BB959B959B9569
:101740009B95BB95BB95BB95BB95BB95BB95BB9539
:10175000BB95BB95BB95BB95BB95BB95BB95BB9509
:10176000BB95BB95BB95BB95BB95BB95BB95BB95F9
:10177000BB95BB95BB95BB95BB95BB95BB95BB95E9
:10178000BB95BB95BB95BB95BB95BB95BB95BB95D9
:10179000BB95BB95BB95BB95BB95BB95BB95BB95C9
:1017A0009B95BB95BB95BB959B959B959B959B9559
:1017B0009B959B959B95BB95BB95BB95BB95BB9509
:1017C000BB95BB95BB95BB95BB95BB95BB959B95B9
:1017D0009B959B95BB95BB95BB95BB95BB95BB95C9
:1017E000BB95BB95BB95BB95BB95BB95BB95BB9579
:1017F000BB95BB95BB95BB95BB95BB95BB959B9589
:101800009B959B959B959B95BB95BB95BB95BB95D8
:10181000BB95BB959B959B959B95BB959B959B95E8
:101820009B95BB95BB95BB95BB95BB95BB95BB9558
:10183000BB95BB95BB95BB95BB95BB959B959B9568
:101840009B959B95BB95BB95BB95BB95BB95BB9558
:10185000BB95BB95BB95BB95BB95BB95BB95BB9508
:10186000BB959B959B959B95BB95BB95BB95BB9558
:10187000BB95BB95BB95BB95BB95BB95BB95BB95E8
:10188000BB959B959B959B95BB95BB95BB95BB9538
:10189000BB95BB95BB95BB95BB95BB95BB95BB95C8
:1018A000BB95BB95BB95BB95BB95BB95BB95BB95B8
:1018B000BB95BB95BB95BB95BB95BB95BB95BB95A8
:1018C000BB95BB95BB95BB95BB95BB95BB95BB9598
:10318000BB95BB95BB95DB95BB95BB95BB95BB959F
:10319000BB95BB95BB95BB95BB95BB95BB95BB95AF
:1031A000BB95BB95BB95BB95BB95BB95BB95BB959F
:1031B000BB95BB95BB95BB95BB95BB95BB95BB958F
:1031C000BB95BB95BB95BB95DB95DB95DB95BB951F
:1031D000BB95BB95BB95BB95BB95BB95BB95BB956F
:1031E000BB95BB95BB95BB95BB95BB95BB95BB955F
:1031F000BB95BB95BB95BB95BB95BB95BB95BB954F
:10320000BB95BB95BB95BB95BB95BB95BB95BB953E
:10321000BB95BB95BB95BB95BB95BB95BB95BB952E
:10322000BB95BB95BB95BB95BB95BB95BB95BB951E
:10323000BB95BB95BB95BB95BB95BB95BB95BB950E
:10324000BB95BB95BB95BB95BB95BB95BB95BB95FE
:10325000BB95BB95BB95BB95BB95BB95BB95BB95EE
:10326000BB95BB95BB95BB95BB95BB95DB95BB95BE
:10327000BB95BB95BB95BB95BB95BB95BB95BB95CE
:10328000BB95BB95BB95BB95BB95BB95BB95BB95BE
:10329000BB95BB95BB95BB95BB95BB95BB95BB95AE
:1032A000BB95BB95BB95BB95BB95BB95BB95BB959E
:1032B000BB95BB95BB95BB95BB95BB95BB95BB958E
:1032C000BB95BB95BB95BB95BB95BB95BB95BB957E
:1032D000BB95BB95BB95BB95BB95BB95BB95BB956E
:1032E000BB95BB95BB95BB95BB95BB95BB95BB955E
:1032F000BB95BB95BB95BB95BB95BB95BB95BB954E
:10330000BB95BB95BB95BB95BB95BB95BB95BB953D
:10331000BB95BB95BB95BB95BB95BB95BB95BB952D
:10332000BB95BB95BB95BB95BB95BB95BB95BB951D
:10333000BB95BB95BB95BB95BB95BB95BB95BB950D
:10334000BB95BB95BB95BB95BB95BB95BB95BB95FD
:10335000BB95BB95BB95BB95BB95BB95BB95BB95ED
:10336000BB95BB95BB95DB95BB95BB95BB95BB95BD
:10337000BB95BB95BB95BB95BB95BB95BB95BB95CD
:10338000BB95BB95BB95BB95BB95BB95BB95BB95BD
:10339000BB95BB95BB95BB95BB95BB95BB95BB95AD
:1033A000BB95BB95BB95BB95BB95BB95BB95BB959D
:1033B000BB95BB95BB95BB95BB95BB95BB95BB958D
:1033C000BB95BB95BB95BB95BB95BB95BB95BB957D
:1033D000BB95BB95BB95BB95BB95BB95BB95BB956D
:1033E000BB95BB95BB95BB95BB95BB95BB95BB955D
:1033F000BB95BB95BB95BB95BB95BB95BB95BB954D
:10340000BB95BB95BB95BB95BB95BB95BB95BB953C
:10341000BB95BB95BB95BB95BB95BB95BB95BB952C
:10342000BB95BB95BB95BB95BB95BB95BB95BB951C
:10343000BB95BB95BB95BB95BB95BB95BB95BB950C
:10344000BB95BB95BB95BB95BB95BB95BB95BB95FC
:10345000BB95BB95BB95BB95BB95BB95BB95BB95EC
:10346000BB95BB95BB95BB95BB95BB95BB95BB95DC
:10347000BB95BB95BB95BB95BB95BB95BB95BB95CC
:10348000BB95BB95BB95BB95BB95BB95BB95BB95BC
:10349000BB95BB95BB95BB95BB95BB95BB95BB95AC
:1034A000BB95BB95BB95BB95BB95BB95BB95BB959C
:1034B000BB95BB95BB95BB95BB95BB95BB95BB958C
:1034C000BB95BB95BB95BB95BB95BB95BB95BB957C
:1034D000BB95BB95BB95BB95BB95BB95BB95BB956C
:1034E000BB95BB95BB95BB95BB95BB95BB95BB955C
:1034F000BB95BB95BB95BB95BB95BB95BB95BB954C
:10350000BB95BB95BB95BB95BB95BB95BB95BB953B
:10351000BB95BB95BB95BB95BB95BB95BB95BB952B
:10352000BB95BB95BB95BB95BB95BB95BB95BB951B
:10353000BB95BB95BB95BB95BB95BB95BB95BB950B
:10354000BB95BB95BB95DB95DB95DB95DB95BB957B
:10355000BB95BB95DB95DB95DB95DB95DB95DB952B
:10356000DB95DB95DB95DB95DB95DB95DB95DB95DB
:10357000DB95DB95DB95DB95DB95DB95DB95DB95CB
:10358000DB95DB95DB95DB95BB95BB95BB95BB953B
:10359000DB95DB95DB95DB95DB95DB95DB95DB95AB
:1035A000BB95BB95BB95DB95DB95DB95DB95DB95FB
:1035B000DB95DB95DB95DB95DB95DB95BB95DB95AB
:1035C000DB95DB95DB95DB95DB95DB95DB95DB957B
:1035D000DB95DB95DB95DB95DB95DB95DB95DB956B
:1035E000DB95DB95DB95DB95DB95DB95DB95DB955B
:1035F000DB95DB95DB95DB95DB95DB95DB95DB954B
:10360000DB95DB95DB95DB95DB95DB95DB95DB953A
:10361000DB95DB95DB95DB95DB95DB95DB95DB952A
:10362000DB95DB95DB95DB95BB95BB95BB95BB959A
:10363000BB95BB95BB95BB95BB95BB95BB95BB950A
:10364000BB95BB95BB95BB95BB95BB95BB95BB95FA
:10365000BB95BB95BB95BB95BB95BB95BB95BB95EA
:10366000BB95BB95BB95BB95BB95BB95BB95BB95DA
:10367000BB95BB95BB95BB95BB95BB95BB95BB95CA
:10368000BB95BB95BB95BB95BB95BB95BB95BB95BA
:10369000BB95BB95BB95BB95BB95BB95BB95BB95AA
:1036A000BB95BB95BB95BB95BB95BB95BB95BB959A
:1036B000BB95BB95BB95BB95BB95BB95BB95BB958A
:1036C000BB95BB95BB95BB95BB95BB95BB95BB957A
:1036D000BB95BB95BB95BB95BB95BB95BB95BB956A
:1036E000BB95BB95BB95BB95BB95BB95BB95BB955A
:1036F000BB95BB95BB95BB95BB95BB95BB95BB954A
:10370000BB95BB95BB95BB95BB95BB95BB95BB9539
:10371000BB95BB95BB95BB95BB95BB95BB95BB9529
:10372000BB95BB95BB95BB95DB95DB95DB95BB95B9
:10373000BB95BB95DB95DB95DB95DB95DB95DB9549
:10374000DB95DB95DB95DB95DB95DB95DB95DB95F9
:10375000DB95DB95DB95DB95DB95DB95DB95DB95E9
:10376000DB95DB95DB95DB95BB95BB95BB95BB9559
:10377000DB95DB95DB95DB95DB95DB95DB95DB95C9
:10378000BB95BB95BB95DB95DB95DB95DB95DB9519
:10379000DB95DB95DB95DB95DB95DB95BB95DB95C9
:1037A000DB95DB95DB95DB95DB95DB95DB95DB9599
:1037B000DB95DB95DB95DB95DB95DB95DB95DB9589
:1037C000DB95DB95DB95DB95DB95DB95DB95DB9579
:1037D000DB95DB95DB95DB95DB95DB95DB95DB9569
:1037E000DB95DB95DB95DB95DB95DB95DB95DB9559
:1037F000DB95DB95DB95DB95DB95DB95DB95DB9549
:10380000DB95DB95DB95DB95BB95BB95BB95BB95B8
:10381000BB95BB95BB95BB95BB95BB95BB95BB9528
:10382000BB95BB95BB95BB95BB95BB95BB95BB9518
:10383000BB95BB95BB95BB95BB95BB95BB95BB9508
:10384000BB95BB95BB95BB95BB95BB95BB95BB95F8
:10385000BB95BB95BB95BB95BB95BB95BB95BB95E8
:10386000BB95BB95BB95BB95BB95BB95BB95BB95D8
:10387000BB95BB95BB95BB95BB95BB95BB95BB95C8
:10388000BB95BB95BB95BB95BB95BB95BB95BB95B8
:10389000BB95BB95BB95BB95DB95BB95BB95BB9588
:1038A000BB95BB95DB95BB95BB95BB95BB95BB9578
:1038B000BB95BB95BB95BB95BB95BB95BB95BB9588
:1038C000BB95BB95BB95BB95BB95BB95BB95BB9578
:1038D000BB95BB95BB95BB95BB95BB95BB95BB9568
:1038E000BB95BB95BB95BB95BB95BB95BB95BB9558
:1038F000BB95BB95BB95BB95BB95BB95BB95BB9548
:10390000BB95BB95BB95BB95DB95DB95DB95DB95B7
:10391000BB95BB95DB95DB95DB95DB95DB95DB9567
:10392000DB95DB95DB95DB95DB95DB95DB95DB9517
:10393000DB95DB95DB95DB95DB95DB95DB95DB9507
:10394000DB95DB95DB95DB95DB95BB95BB95DB9537
:10395000DB95DB95DB95DB95DB95DB95DB95DB95E7
:10396000BB95BB95DB95DB95DB95DB95DB95DB9517
:10397000DB95DB95DB95DB95DB95BB95BB95BB9527
:10398000DB95DB95DB95DB95DB95DB95DB95DB95B7
:10399000DB95DB95DB95DB95DB95DB95DB95DB95A7
:1039A000DB95DB95DB95DB95DB95DB95DB95DB9597
:1039B000DB95DB95DB95DB95DB95DB95DB95DB9587
:1039C000DB95DB95DB95DB95DB95DB95DB95DB9577
:1039D000DB95DB95DB95DB95DB95DB95DB95DB9567
:1039E000DB95DB95DB95BB95BB95BB95BB95BB95F7
:1039F000BB95BB95BB95BB95BB95BB95BB95BB9547
:103A0000BB95BB95BB95BB95BB95BB95BB95BB9536
:103A1000BB95BB95BB95BB95BB95BB95BB95BB9526
:103A2000BB95BB95BB95BB95BB95BB95BB95BB9516
:103A3000BB95BB95BB95BB95BB95BB95BB95BB9506
:103A4000BB95BB95BB95BB95BB95BB95BB95BB95F6
:103A5000BB95BB95BB95BB95BB95BB95BB95BB95E6
:103A6000BB95BB95BB95BB95BB95BB95BB95BB95D6
:103A7000BB95BB95BB95BB95DB95BB95BB95BB95A6
:103A8000BB95BB95DB95BB95BB95BB95BB95BB9596
:103A9000BB95BB95BB95BB95BB95BB95BB95BB95A6
:103AA000BB95BB95BB95BB95BB95BB95BB95BB9596
:103AB000BB95BB95BB95BB95BB95BB95BB95BB9586
:103AC000BB95BB95BB95BB95BB95BB95BB95BB9576
:103AD000BB95BB95BB95BB95BB95BB95DB95DB9526
:103AE000DB95DB95DB95DB95DB95DB95DB95DB9556
:103AF000DB95DB95DB95DB95DB95DB95DB95DB9546
:103B0000DB95DB95DB95DB95DB95DB95DB95DB9535
:103B1000DB95DB95DB95DB95DB95DB95DB95DB9525
:103B2000DB95DB95DB95DB95DB95DB95DB95DB9515
:103B3000DB95DB95DB95DB95DB95DB95DB95DB9505
:103B4000DB95DB95DB95DB95DB95DB95DB95DB95F5
:103B5000DB95DB95DB95DB95DB95DB95DB95DB95E5
:103B6000DB95DB95DB95DB95DB95DB95DB95DB95D5
:103B7000DB95DB95DB95DB95DB95DB95DB95DB95C5
:103B8000DB95DB95DB95DB95DB95DB95DB95DB95B5
:103B9000DB95DB95DB95DB95DB95DB95DB95DB95A5
:103BA000DB95DB95DB95DB95DB95DB95DB95DB9595
:103BB000DB95DB95DB95DB95DB95DB95DB95DB9585
:103BC000DB95DB95DB95DB95DB95DB95DB95DB9575
:103BD000BB95BB95BB95DB95BB95BB95BB95BB9545
:103BE000BB95BB95BB95BB95BB95BB95BB95BB9555
:103BF000BB95BB95BB95BB95BB95BB95BB95BB9545
:103C0000BB95BB95BB95BB95BB95BB95BB95BB9534
:103C1000BB95BB95BB95BB95BB95BB95BB95BB9524
:103C2000BB95BB95BB95BB95BB95BB95BB95BB9514
:103C3000BB95BB95BB95BB95BB95BB95BB95BB9504
:103C4000BB95BB95BB95BB95BB95BB95BB95BB95F4
:103C5000BB95BB95BB95BB95DB95BB95DB95BB95A4
:103C6000BB95BB95DB95DB95BB95BB95BB95BB9594
:103C7000BB95BB95BB95BB95BB95BB95BB95BB95C4
:103C8000BB95BB95BB95BB95BB95BB95BB95BB95B4
:103C9000BB95BB95BB95BB95BB95BB95BB95BB95A4
:103CA000BB95BB95BB95BB95BB95BB95BB95BB9594
:103CB000BB95BB95BB95BB95BB95BB95BB95DB9564
:103CC000DB95DB95DB95DB95DB95DB95DB95DB9574
:103CD000DB95DB95DB95DB95DB95DB95DB95DB9564
:103CE000DB95DB95DB95DB95DB95DB95DB95DB9554
:103CF000DB95DB95DB95DB95DB95DB95DB95DB9544
:103D0000DB95DB95DB95DB95DB95DB95DB95DB9533
:103D1000DB95DB95DB95DB95DB95DB95DB95DB9523
:103D2000DB95DB95DB95DB95DB95DB95DB95DB9513
:103D3000DB95DB95DB95DB95DB95DB95DB95DB9503
:103D4000DB95DB95DB95DB95DB95DB95DB95DB95F3
:103D5000DB95DB95DB95DB95DB95DB95DB95DB95E3
:103D6000DB95DB95DB95DB95DB95DB95DB95DB95D3
:103D7000DB95DB95DB95DB95DB95DB95DB95DB95C3
:103D8000DB95DB95DB95DB95DB95DB95DB95DB95B3
:103D9000DB95DB95DB95DB95DB95DB95DB95DB95A3
:103DA000DB95DB95DB95DB95DB95DB95DB95DB9593
:103DB000BB95BB95BB95BB95BB95BB95BB95BB9583
:103DC000BB95BB95BB95BB95BB95BB95BB95BB9573
:103DD000BB95BB95BB95BB95BB95BB95BB95BB9563
:103DE000BB95BB95BB95BB95BB95BB95BB95BB9553
:103DF000BB95BB95BB95BB95BB95BB95BB95BB9543
:103E0000BB95BB95BB95BB95BB95BB95BB95BB9532
:103E1000BB95BB95BB95BB95BB95BB95BB95BB9522
:103E2000BB95BB95BB95BB95BB95BB95BB95BB9512
:103E3000BB95BB95BB95BB95DB95DB95DB95DB9582
:103E4000DB95DB95DB95DB95DB95DB95DB95DB95F2
:103E5000DB95DB95DB95DB95DB95DB95DB95DB95E2
:103E6000DB95DB95DB95DB95DB95DB95DB95DB95D2
:103E7000DB95DB95DB95DB95DB95DB95DB95DB95C2
:10407000DB95DB95DB95DB95DB95DB95BB95BB9500
:10408000DB95DB95DB95DB95DB95DB95DB95DB95B0
:10409000DB95DB95DB95DB95DB95DB95DB95DB95A0
:1040A000DB95DB95DB95DB95DB95DB95DB95DB9590
:1040B000DB95DB95DB95DB95DB95DB95DB95DB9580
:1040C000DB95DB95DB95DB95DB95DB95DB95DB9570
:1040D000DB95DB95DB95DB95DB95DB95DB95DB9560
:1040E000DB95DB95DB95DB95DB95DB95DB95DB9550
:1040F000DB95DB95DB95DB95DB95DB95DB95DB9540
:10410000DB95DB95DB95DB95DB95DB95DB95DB952F
:10411000DB95DB95DB95DB95DB95DB95DB95DB951F
:10412000DB95DB95DB95DB95DB95DB95DB95DB950F
:10413000DB95DB95DB95DB95DB95DB95DB95DB95FF
:10414000DB95DB95DB95DB95DB95DB95DB95DB95EF
:10415000DB95DB95DB95DB95DB95DB95DB95DB95DF
:10416000DB95DB95DB95DB95DB95DB95DB95DB95CF
:10417000DB95DB95DB95DB95DB95DB95DB95DB95BF
:10418000DB95DB95DB95DB95DB95DB95DB95DB95AF
:10419000DB95DB95DB95DB95DB95DB95DB95DB959F
:1041A000DB95DB95DB95DB95DB95DB95DB95DB958F
:1041B000DB95DB95DB95DB95DB95DB95DB95DB957F
:1041C000DB95DB95DB95DB95DB95DB95DB95DB956F
:1041D000DB95DB95DB95DB95DB95DB95DB95DB955F
:1041E000DB95DB95DB95DB95DB95DB95DB95DB954F
:1041F000DB95DB95DB95DB95DB95DB95DB95DB953F
:10420000DB95DB95DB95DB95DB95DB95DB95DB952E
:10421000DB95DB95DB95DB95DB95DB95DB95DB951E
:10422000DB95DB95DB95DB95DB95DB95DB95DB950E
:10423000DB95DB95DB95DB95DB95DB95DB95DB95FE
:10424000DB95DB95DB95DB95DB95DB95DB95DB95EE
:10425000DB95DB95DB95DB95DB95DB95BB95BB951E
:10426000DB95DB95DB95DB95DB95DB95DB95DB95CE
:10427000DB95DB95DB95DB95DB95DB95DB95DB95BE
:10428000DB95DB95DB95DB95DB95DB95DB95DB95AE
:10429000DB95DB95DB95DB95DB95DB95DB95DB959E
:1042A000DB95DB95DB95DB95DB95DB95DB95DB958E
:1042B000DB95DB95DB95DB95DB95DB95DB95DB957E
:1042C000DB95DB95DB95DB95DB95DB95DB95DB956E
:1042D000DB95DB95DB95DB95DB95DB95DB95DB955E
:1042E000DB95DB95DB95DB95DB95DB95DB95DB954E
:1042F000DB95DB95DB95DB95DB95DB95DB95DB953E
:10430000DB95DB95DB95DB95DB95DB95DB95DB952D
:10431000DB95DB95DB95DB95DB95DB95DB95DB951D
:10432000DB95DB95DB95DB95DB95DB95DB95DB950D
:10433000DB95DB95DB95DB95DB95DB95DB95DB95FD
:10434000DB95DB95DB95DB95DB95DB95DB95DB95ED
:10435000DB95DB95DB95DB95DB95DB95DB95DB95DD
:10436000DB95DB95DB95DB95DB95DB95DB95DB95CD
:10437000DB95DB95DB95DB95DB95DB95DB95DB95BD
:10438000DB95DB95DB95DB95DB95DB95DB95DB95AD
:10439000DB95DB95DB95DB95DB95DB95DB95DB959D
:1043A000DB95DB95DB95DB95DB95DB95DB95DB958D
:1043B000DB95DB95DB95DB95DB95DB95DB95DB957D
:1043C000DB95DB95DB95DB95DB95DB95DB95DB956D
:1043D000DB95DB95DB95DB95DB95DB95DB95DB955D
:1043E000DB95DB95DB95DB95DB95DB95DB95DB954D
:1043F000DB95DB95DB95DB95DB95DB95DB95DB953D
:10440000DB95DB95DB95DB95DB95DB95DB95DB952C
:10441000DB95DB95DB95DB95DB95DB95DB95DB951C
:10442000DB95DB95DB95DB95DB95DB95DB95DB950C
:10443000DB95DB95DB95DB95DB95DB95BB95BB953C
:10444000DB95DB95DB95DB95DB95DB95DB95DB95EC
:10445000DB95DB95DB95DB95DB95DB95DB95DB95DC
:10446000DB95DB95DB95DB95DB95DB95DB95DB95CC
:10447000DB95DB95DB95DB95DB95DB95DB95DB95BC
:104BB000DB95DB95DB95DB95DB95DB95DB95DC9D6C
:104BC000DB95DB95DC9DDB95DB95DB95DB95DB955C
:104BD000DB95DB95DB95DB95DB95DB95DB95DB9555
:104BE000DB95DB95DB95DB95DB95DB95DB95DB9545
:104BF000DB95DB95DB95DB95DB95DB95DB95DB9535
:104C0000DB95DB95DB95DB95DB95DB95DB95DB9524
:10500000DB95DB95DB95DB95DB95DB95DC9DDB9517
:10501000DB95DB95DB95DB95DB95DB95DB95DB9510
:10502000DB95DB95DB95DB95DB95DB95DB95DB9500
:10503000DB95DB95DB95DB95DB95DB95DB95DB95F0
:10504000DB95DB95DB95DB95DB95DB95DB95DB95E0
:10505000DB95DB95DB95DB95DB95DB95DB95DB95D0
:10506000DB95DB95DB95DB95DB95DB95DB95DB95C0
:10507000DB95DB95DB95DB95DB95DB95DB95DB95B0
:10508000DB95DB95DB95DB95DB95DB95DB95DB95A0
:10509000DB95DB95DB95DB95DB95DB95DB95DB9590
:1050A000DB95DB95DB95DB95DB95DB95DB95DB9580
:1050B000DB95DB95DB95DB95DB95DB95DB95DB9570
:1050C000DB95DB95DB95DB95DB95DB95DB95DB9560
:1050D000DB95DB95DB95DB95DB95DB95DB95DB9550
:1050E000DB95DB95DB95DB95DB95DB95DB95DB9540
:1050F000DB95DB95DB95DB95DB95DB95DB95DB9530
:10510000DB95DB95DB95DB95DB95DB95DB95DB951F
:10511000DB95DB95DB95DB95DB95DB95DB95DB950F
:10512000DB95DB95DB95DB95DB95DB95DB95DB95FF
:10513000DB95DB95DB95DB95DB95DB95DB95DB95EF
:10514000DB95DB95DB95DB95DB95DB95DB95DB95DF
:10515000DB95DB95DB95DB95DB95DB95DB95DB95CF
:10516000DB95DB95DB95DB95DB95DB95DB95DB95BF
:10517000DB95DB95DB95DB95DB95DB95DB95DB95AF
:10518000DB95DB95DB95DB95DB95DB95DB95DB959F
:10519000DB95DB95DB95DB95DB95DB95DB95DB958F
:1051A000DB95DB95DB95DB95DB95DB95DC9DDB9576
:1051B000DB95DB95DB95DB95DB95DB95DB95DB956F
:1051C000DB95DB95DB95DB95DB95DB95DB95DB955F
:1051D000DB95DB95DB95DB95DB95DB95DB95DB954F
:1051E000DB95DB95DB95DB95DB95DB95DB95DB953F
:1051F000DB95DB95DB95DC9DDB95DB95DB95DB9526
:10520000DB95DB95DB95DB95DB95DB95DB95DB951E
:10521000DB95DB95DB95DB95DB95DB95DB95DB950E
:10522000DB95DB95DB95DB95DB95DB95DB95DB95FE
:10523000DB95DB95DB95DB95DB95DB95DB95DB95EE
:10524000DB95DB95DB95DB95DB95DB95DB95DB95DE
:10525000DB95DB95DB95DB95DB95DB95DB95DB95CE
:10526000DB95DB95DB95DB95DB95DB95DB95DB95BE
:10527000DB95DB95DB95DB95DB95DB95DB95DB95AE
:10528000DB95DB95DB95DB95DB95DB95DB95DB959E
:10529000DB95DB95DB95DB95DB95DB95DB95DB958E
:1052A000DB95DB95DB95DB95DB95DB95DB95DB957E
:1052B000DB95DB95DB95DB95DB95DB95DB95DB956E
:1052C000DB95DB95DB95DB95DB95DB95DB95DB955E
:1052D000DB95DB95DB95DB95DB95DB95DB95DB954E
:1052E000DB95DB95DB95DB95DB95DB95DB95DB953E
:1052F000DB95DB95DB95DB95DB95DB95DB95DB952E
:10530000DB95DB95DB95DB95DB95DB95DB95DB951D
:10531000DB95DB95DB95DB95DB95DB95DB95DB950D
:10532000DB95DB95DB95DB95DB95DB95DB95DB95FD
:10533000DB95DB95DB95DB95DB95DB95DB95DB95ED
:10534000DB95DB95DB95DB95DB95DB95DB95DB95DD
:10535000DB95DB95DB95DB95DB95DB95DB95DB95CD
:10536000DB95DB95DB95DB95DB95DB95DB95DB95BD
:10537000DB95DB95DB95DB95DB95DB95DB95DB95AD
:10538000DB95DB95DB95DB95DB95DB95DB95BB95BD
:10539000DB95DB95DB95DB95DB95DB95DB95DB958D
:1053A000DB95DB95DB95DB95DB95DB95DB95DB957D
:1053B000DB95DB95DB95DB95DB95DB95DB95DB956D
:1053C000DB95DB95DB95DB95DB95DB95DB95DB955D
:1053D000DB95DB95DB95DC95DB95DB95DB95DB954C
:1053E000DB95DB95DB95DB95DB95DB95DB95DB953D
:1053F000DB95DB95DB95DB95DB95DB95DB95DB952D
:10540000DB95DB95DB95DB95DB95DB95DB95DB951C
:10541000DB95DB95DB95DB95DB95DB95DB95DB950C
:10542000DB95DB95DB95DB95DB95DB95DB95DB95FC
:10543000DB95DB95DB95DB95DB95DB95DB95DB95EC
:10544000DB95DB95DB95DB95DB95DB95DB95DB95DC
:10545000DB95DB95DB95DB95DB95DB95DB95DB95CC
:10546000DB95DB95DB95DB95DB95DB95DB95DB95BC
:10547000DB95DB95DB95DB95DC95DB95DB95DB95AB
:10548000DB95DB95DB95DB95DB95DB95DB95DB959C
:10549000DB95DB95DB95DB95DB95DB95DB95DB958C
:1054A000DB95DB95DB95DB95DB95DB95DB95DB957C
:1054B000DB95DB95DB95DB95DB95DB95DB95DB956C
:1054C000DB95DB95DB95DB95DB95DB95DB95DB955C
:1054D000DB95DB95DB95DB95DB95DB95DB95DB954C
:1054E000DB95DB95DB95DB95DB95DB95DB95DB953C
:1054F000DB95DB95DB95DB95DB95DB95DB95DB952C
:10550000DB95DB95DB95DB95DB95DB95DB95DB951B
:10551000DB95DB95DB95DC95DC9DDC9DDC9DDC9DE6
:10552000DC9DDC9DDC9DDC9DDC95DC95DC95DC95D3
:10553000DC95DC95DC95DC95DC9DDC9DDC9DDC9DC3
:10554000DC9DDC9DDC9DDC9DDC95DC95DC95DC95B3
:10555000DC95DC95DC95DC95DC95DC95DC95DC95C3
:10556000DC95DC95DC95DC95DB95DB95DB95DB95B7
:10557000DB95DB95DC95DC95DC95DC95DC95DC95A5
:10558000DC95DC95DC95DC95DC95DC95DC95DC9593
:10559000DC95DC95DC95DC95DC95DC95DC95DC9583
:1055A000DC95DC95DC95DC95DC95DC95DC95DC9573
:1055B000DC95DB95DC95DC9DDB95DC95DC95DC955D
:1055C000DC95DC95DC95DC95DC95DC95DC95DC9553
:1055D000DC95DC95DC95DC95DC95DC95DC95DC9543
:1055E000DC95DC95DC95DC95DC95DB95DB95DB9536
:1055F000DB95DB95DB95DB95DB95DB95DB95DB952B
:10560000DB95DB95DB95DB95DB95DB95DB95DB951A
:10561000DB95DB95DB95DB95DB95DB95DB95DB950A
:10562000DB95DB95DB95DB95DB95DB95DB95DB95FA
:10563000DB95DB95DB95DB95DB95DB95DB95DB95EA
:10564000DB95DB95DB95DB95DB95DB95DB95DC95D9
:10565000DB95DB95DB95DB95DB95DB95DB95DB95CA
:10566000DB95DB95DB95DB95DB95DB95DB95DB95BA
:10567000DB95DB95DB95DB95DB95DB95DB95DB95AA
:10568000DB95DB95DB95DB95DB95DB95DB95DB959A
:10569000DB95DB95DB95DB95DB95DB95DB95DB958A
:1056A000DB95DB95DB95DB95DB95DB95DB95DB957A
:1056B000DB95DB95DB95DB95DB95DB95DB95DB956A
:1056C000DB95DB95DB95DB95DB95DB95DB95DB955A
:1056D000DB95DB95DB95DB95DB95DB95DB95DB954A
:1056E000DB95DB95DB95DB95DB95DB95DB95DB953A
:1056F000DB95DB95DB95DC95DC9DDC9DDC9DDC9D05
:10570000DC9DDC9DDC9DDC9DDC9DDC9DDC9DDC9DD1
:10571000DC9DDC9DDC9DDC9DDC9DDC9DDC9DDC9DC1
:10572000DC9DDC9DDC9DDC9DDC95DC95DC95DC95D1
:10573000DC95DC95DC95DC95DC95DC95DC95DC95E1
:10574000DC95DC95DC95DC95DB95DB95DB95DB95D5
:10575000DB95DB95DC95DC95DC95DC95DC95DC95C3
:10576000DC95DC95DC95DC95DC95DC95DC95DC95B1
:10577000DC95DC95DC95DC95DC9DDC9DDC9DDC9D81
:10578000DC9DDC9DDC9DDC9DDC9DDC9DDC9DDC9D51
:10579000DC9DDB95DC9DDC9DDB95DC95DC95DC956B
:1057A000DC95DC95DC95DC95DC95DC95DC95DC9571
:1057B000DC95DC95DC95DC95DC95DC95DC95DC9561
:1057C000DC95DC95DC95DC95DC95DB95DB95DB9554
:1057D000DB95DB95DB95DB95DB95DB95DB95DB9549
:1057E000DB95DB95DB95DB95DB95DB95DB95DB9539
:1057F000DB95DB95DB95DB95DB95DB95DB95DB9529
:10580000DB95DB95DB95DB95DB95DB95DB95DB9518
:10581000DB95DB95DB95DB95DB95DB95DB95DB9508
:10582000DB95DB95DB95DB95DB95DB95DB95DC95F7
:10583000DB95DB95DB95DB95DB95DB95DB95DB95E8
:10584000DB95DB95DB95DB95DB95DB95DB95DB95D8
:10585000DB95DB95DB95DB95DB95DB95DB95DB95C8
:10586000DB95DB95DB95DB95DB95DB95DB95DB95B8
:10587000DB95DB95DB95DB95DB95DB95DB95DB95A8
:10588000DB95DB95DB95DB95DB95DB95DB95DB9598
:10589000DB95DB95DB95DB95DB95DB95DB95DB9588
:1058A000DB95DB95DB95DB95DB95DB95DB95DB9578
:1058B000DB95DB95DB95DB95DB95DB95DB95DB9568
:1058C000DB95DB95DB95DB95DB95BB95DB95DB9578
:1058D000DB95DC95DC95DC95DC9DDC9DDC9DDC9D21
:1058E000DC9DDC9DDC9DDC9DDC9DDC9DDC9DDC9DF0
:1058F000DC9DDC9DDC9DDC9DDC9DDC9DDC9DDC9DE0
:10590000DC9DDC9DDC9DDC9DDC9DDC9DDC9DDC9DCF
:10591000DC9DDC9DDC9DDC9DDC9DDC9DDC9DDC9DBF
:10592000DC9DDC9DDC9DDC9DDC9DDB95DB95DB95CA
:10593000DC9DDC9DDC9DDC9DDC9DDC9DDC9DDC9D9F
:10594000DC9DDC9DDC9DDC9DDC9DDC9DDC9DDC9D8F
:10595000DC9DDC9DDC9DDC9DDC9DDC9DDC9DDC9D7F
:10596000DC9DDC9DDC9DDC9DDC9DDC9DDC9DDC9D6F
:10597000DC9DDC95DC95DC9DDC9DDC9DDC9DDC9D6F
:10598000DC9DDC9DDC9DDC9DDC9DDC9DDC9DDC9D4F
:10599000DC9DDC9DDC9DDC9DDC9DDC9DDC9DDC9D3F
:1059A000DC9DDC9DDC9DDC9DDC9DDC95DB95DB9549
:1059B000DB95DB95DB95DB95DB95DB95DB95DB9567
:1059C000DB95DB95DB95DB95DB95DB95DB95DB9557
:1059D000DB95DB95DB95DB95DB95DB95DB95DB9547
:1059E000DB95DB95DB95DB95DB95DB95DB95DB9537
:1059F000DB95DB95DB95DB95DB95DB95DB95DB9527
:105A0000DB95DB95DB95DB95DB95DB95DB95DC9D0D
:105A1000DC95DB95BB95DB95DB95DB95DB95DB9525
:105A2000DB95DB95DB95DB95DB95DB95DB95DB95F6
:105A3000DB95DB95DB95DB95DB95DB95DB95DB95E6
:105A4000DB95DB95DB95DB95DB95DB95DB95DB95D6
:105A5000DB95DB95DB95DB95DB95DB95DB95DB95C6
:105A6000DB95DB95DB95DB95DB95DB95DB95DB95B6
:105A7000DB95DB95DB95DB95DB95DB95DB95DB95A6
:105A8000DB95DB95DB95DB95DB95DB95DB95DB9596
:105A9000DB95DB95DB95DB95DB95DB95DB95DB9586
:105AA000DB95DB95DB95DB95DB95DB95DB95DB9576
:105AB000DC95DC9DDC9DDC9DDC9DDC9DDC9DDC9D26
:105AC000DC9DDC9DDC9DDC9DDC9DDC9DDC9DDC9D0E
:105AD000DC9DDC9DDC9DDC9DDC9DDC9DDC9DDC9DFE
:105AE000DC9DDC9DDC9DDC9DDC9DDC9DDC9DDC9DEE
:105AF000DC9DDC9DDC9DDC9DDC9DDC9DDC9DDC9DDE
:105B0000DC9DDC9DDC9DDC9DDC9DDB95DB95DB95E8
:105B1000DC95DC95DC9DDC9DDC9DDC9DDC9DDC9DCD
:105B2000DC9DDC9DDC9DDC9DDC9DDC9DDC9DDC9DAD
:105B3000DC9DDC9DDC9DDC9DDC9DDC9DDC9DDC9D9D
:105B4000DC9DDC9DDC9DDC9DDC9DDC9DDC9DDC9D8D
:105B5000DC9DDC9DDC9DDC9DDC9DDC9DDC9DDC9D7D
:105B6000DC9DDC9DDC9DDC9DDC9DDC9DDC9DDC9D6D
:105B7000DC9DDC9DDC9DDC9DDC9DDC9DDC9DDC9D5D
:105B8000DC9DDC9DDC9DDC9DDC9DDC95DC95DB9566
:105B9000DB95DB95DB95DB95DB95DB95DB95DB9585
:105BA000DB95DB95DB95DB95DB95DB95DB95DB9575
:105BB000DB95DB95DB95DB95DB95DB95DB95DB9565
:105BC000DB95DB95DB95DB95DB95DB95DB95DB9555
:105BD000DB95DB95DB95DB95DB95DB95DB95DB9545
:105BE000DB95DB95DB95DB95DB95DB95DC95DC9D2B
:105BF000DC95DB95DB95DB95DB95DB95DB95DB9524
:105C0000DB95DB95DB95DB95DB95DB95DB95DB9514
:105C1000DB95DB95DB95DB95DB95DB95DB95DB9504
:105C2000DB95DB95DB95DB95DB95DB95DB95DB95F4
:105C3000DB95DB95DB95DB95DC95DC95DC95DC95E0
:105C4000DC95DC95DC95DC95DC95DC95DC95DC95CC
:105C5000DC95DC95DC95DC95DC95DC95DC95DC95BC
:105C6000DC95DB95DB95DB95DB95DB95DB95DC95B2
:105C7000DC95DC95DC95DC95DC95DC95DC95DC959C
:105C8000DC95DC95DC95DC95DC95DC95DC95DB958D
:105C9000DC95DC9DDC9DDC9DDC9DDC9DDC9DDC9D44
:105CA000DC9DDC9DDC9DDC9DDC9DDC9DDC9DDC9D2C
:105CB000DC9DDC9DDC9DDC9DDC9DDC9DDC9DDC9D1C
:105CC000DC9DDC9DDC9DDC9DDC9DDC9DDC9DDC9D0C
:105CD000DC9DDC9DDC9DDC9DDC9DDC9DDC9DDC9DFC
:105CE000DC9DDC9DDC9DDC9DDC9DDC95DC95DC9504
:105CF000DC95DC9DDC9DDC9DDC9DDC9DDC9DDC9DE4
:105D0000DC9DDC9DDC9DDC9DDC9DDC9DDC9DDC9DCB
:105D1000DC9DDC9DDC9DDC9DDC9DDC9DDC9DDC9DBB
:105D2000DC9DDC9DDC9DDC9DDC95DC9DDC9DDC9DB3
:105D3000DC9DDC9DDC9DDC9DDC9DDC9DDC9DDC95A3
:105D4000DC9DDC9DDC9DDC9DDC9DDC9DDC9DDC9D8B
:105D5000DC9DDC9DDC9DDC9DDC9DDC9DDC9DDC9D7B
:105D6000DC9DDC9DDC9DDC9DDC9DDC95DC95DC9583
:105D7000DC95DC95DC95DB95DC95DC95DC95DC959C
:105D8000DC95DC95DC95DC95DC95DC95DC95DC958B
:105D9000DC95DC95DC95DC95DC95DC95DB95DB957D
:105DA000DB95DB95DC95DC95DC95DC95DC95DC956D
:105DB000DC95DC95DC95DC95DC95DC95DC95DC955B
:105DC000DC95DC95DC95DC95DC95DC95DC9DDC9D3B
:105DD000DC9DDC95DC95DC95DB95DB95DB9DDB9D27
:105DE000DB95DB9DDA9DDB9DDB9DDA9DDA9DDB9DFE
:105DF000DB95DB95DB95DB95DC95DC95DC95DC951F
:105E0000DC95DC95DC95DC95DB95DB95DB95DC950D
:105E1000DC95DC95DC95DC95DC9DDC9DDC9DDC9DDA
:105E2000DC9DDC9DDC9DDC9DDC9DDC9DDC9DDC9DAA
:105E3000DC9DDC9DDC9DDC9DDC9DDC9DDC9DDC9D9A
:105E4000DC9DDC95DB95DB95DB95DB95DB95DC9DBF
:105E5000DC9DDC9DDC9DDC9DDC9DDC9DDC9DDC9D7A
:105E6000DC9DDC9DDC9DDC9DDC9DDC9DDC9DDC9D6A
:105E7000DC9DDC9DDC9DDC9DDC9DDC9DDC9DDC9D5A
:105E8000DC9DDC9DDC9DDC9DDC9DDC9DDC9DDC9D4A
:105E9000DC9DDC9DDC9DDC9DDC9DDC9DDC9DDC9D3A
:105EA000DC9DDC9DDC9DDC9DDC9DDC9DDC9DDC9D2A
:105EB000DC9DDC9DDC9DDC9DDC9DDC9DDC9DDC9D1A
:105EC000DC9DDC9DDC9DDC9DDC9DDC9DDC9DDC9D0A
:105ED000DC9DDC9DDC9DDC9DDC9DDC9DDC9DDC9DFA
:105EE000DC9DDC9DDC9DDC9DDC9DDC9DDC9DDC9DEA
:105EF000DC9DDC9DDC9DDC9DDC9DDC9DDC9DDC9DDA
:105F0000DC9DDC9DDC9DDC9DDC9DDC9DDC9DDC9DC9
:105F1000DC9DDC9DDC9DDC9DDC9DDC9DDC9DDC9DB9
:105F2000DC9DDC9DDC9DDC9DDC9DDC9DDC9DDC9DA9
:105F3000DC9DDC9DDC9DDC9DDC9DDC9DDC9DDC9D99
:105F4000DC9DDC9DDC9DDC9DDC9DDC9DDC9DDC9D89
:105F5000DC9DDC9DDC9DDC9DDC9DDC9DDC9DDC9D79
:105F6000DC9DDC9DDC9DDC9DDC9DDC9DDC9DDC9D69
:105F7000DC9DDC9DDC9DDC9DDC9DDC9DDC95DB956A
:105F8000DB95DB95DC9DDC9DDC9DDC9DDC9DDC9D5B
:105F9000DC9DDC9DDC9DDC9DDC9DDC9DDC9DDC9D39
:105FA000DC9DDC9DDC9DDC9DDC9DFC9DDC9DDB9D0A
:105FB000DB9DDA9DBA9DDA9DB9A5B8ADD7ADB7AD79
:105FC000B8ADD8ADD8B5B8ADB7ADD8B5D7B5B7AD14
:105FD000BA9DDB95DB95DC95DC9DDC9DDC9DDC9D35
:105FE000DC9DDC9DDC9DDB95DB95DB95DC95DC9D0C
:105FF000DC9DDC9DDC9DDC9DDC9DDC9DDC9DDC9DD9
:10600000DC9DDC9DDC9DDC9DDC9DDC9DDC9DDC9DC8
:10601000DC9DDC9DDC9DDC9DDC9DDC9DDC9DDC9DB8
:10602000DC9DDC95DC95DB95DB95DB95DB95DC9DDC
:10603000DC9DDC9DDC9DDC9DDC9DDC9DDC9DDC9D98
:10604000DC9DDC9DDC9DDC9DDC95DC9DDC9DDC9D90
:10605000DC9DDC95DB95DB95DB95DB95DC95DC9DAC
:10606000DC9DDC9DDC9DDC95DC9DDC9DDC9DDC9D70
:10607000DC9DDC9DDC9DDC9DDC9DDC9DDC9DDC9D58
:10608000DC9DDC9DDC9DDC9DDC9DDC9DDC9DDC9D48
:10609000DC9DDC9DDC9DDC9DDC9DDC9DDC9DDC9D38
:1060A000DC9DDC9DDC9DDC9DDC9DDC9DDC9DDC9D28
:1060B000DC9DDC9DDC9DDC9DDC9DDC9DDC9DDC9D18
:1060C000DC9DDC9DDC9DDC9DDC9DDC9DDC9DDC9D08
:1060D000DC9DDC9DDC9DDC9DDC9DDC9DDC9DDC9DF8
:1060E000DC9DDC9DDC9DDC9DDC9DDC9DDC9DDC9DE8
:1060F000DC9DDC9DDC9DDC9DDC9DDC9DDC9DDC9DD8
:10610000DC9DDC9DDC9DDC9DDC9DDC9DDC9DDC9DC7
:10611000DC9DDC9DDC9DDC9DDC9DDC9DDC9DDC9DB7
:10612000DC9DDC9DDC9DDC9DDC9DDC9DDC9DDC9DA7
:10613000DC9DDC9DDC9DDC9DDC9DDC9DDC9DDC9D97
:10614000DC9DDC9DDC9DDC9DDC9DDC9DDC9DDC9D87
:10615000DC9DDC9DDC9DDC9DDC9DDC9DDC95DB9588
:10616000DB95DB95DC9DDC9DDC9DDC9DDC9DDC9D79
:10617000DC9DDC9DDC9DDC9DDC9DDC9DDC9DDC9D57
:10618000DC9DDC9DDC9DDC9DDC9DDC9DDC9DD99D4A
:10619000D8AD18B619BEF8B5F8B5DCCE3DDFFCD6E3
:1061A0007AC65EDF9FE71DD71CD79FE77EE79AC6BA
:1061B000D8ADB9A5DB95DC9DDC9DDC9DDC9DDC9D2F
:1061C000DC9DDC9DDC9DDB95DB95DB95DC95DC9532
:1061D000DC9DDC9DDC9DDC9DDC9DDC9DDC9DDC9DF7
:1061E000DC9DDC9DDC9DDC9DDC9DDC9DDC9DDC9DE7
:1061F000DC9DDC9DDC9DDC9DDC9DDC9DDC9DDC9DD7
:10620000DC9DDC9DDC9DDC9DDC9DDC9DDC9DDC9DC6
:10621000DC9DDC9DDC95DC9DDC9DDC9DDC9DDC9DBE
:10622000DC9DDC9DDC9DDC9DDC9DDC9DDC9DDC9DA6
:10623000DC9DDC9DDC95DC95DC95DC95DC95DC9DBE
:10624000DC9DDC9DDC9DDC9DDC9DDC9DDC9DDC9D86
:10625000DC9DDC9DDC9DDC9DDC9DDC9DDC9DDC9D76
:10626000DC9DDC9DDC9DDC9DDC9DDC9DDC9DDC9D66
:10627000DC9DDC9DDC9DDC9DDC9DDC9DDC9DDC9D56
:10628000DC9DDC9DDC9DDC9DDC9DDC9DDC9DDC9D46
:10629000DC9DDC9DDC9DDC9DDC9DDC9DDC9DDC9D36
:1062A000DC9DDC9DDC9DDC9DDC9DDC9DDC9DDC9D26
:1062B000DC9DDC9DDC9DDC9DDC9DDC9DDC9DDC9D16
:1062C000DC9DDC9DDC9DDC9DDC9DDC9DDC9DDC9D06
:1062D000DC9DDC9DDC9DDC9DDC9DDC9DDC9DDC9DF6
:1062E000DC9DDC9DDC9DDC9DDC9DDC9DDC9DDC9DE6
:1062F000DC9DDC9DDC9DDC9DDC9DDC9DDC9DDC9DD6
:10630000DC9DDC9DDC9DDC9DDC9DDC9DDC9DDC9DC5
:10631000DC9DDC9DDC9DDC9DDC9DDC9DDC9DDC9DB5
:10632000DC9DDC9DDC9DDC9DDC9DDC9DDC9DDC9DA5
:10633000DC9DDC9DDC9DDC9DDC95DC9DDC9DDC9D9D
:10634000DC9DDC9DDC9DDC95DC9DDC9DDC9DDC9D8D
:10635000DC9DDC9DDC9DDC9DDC9DDC9DDC9DDC9D75
:10636000DC9DDC9DDC9DDC9DDC9DDC95DA9DD8B55B
:10637000DCD67EE79FE77EE77EDFBFEFBFEFBFEFB4
:10638000BFEFBFEFBFEFBFEFDFEFBFEFBFEF9FE7A5
:106390001DD719BEB9A5DC9DDC9DDC9DDC9DDC9D77
:1063A000DC9DDC9DDC9DDC95DC9DDC9DDC9DDC9D2D
:1063B000DC9DDC9DDC9DDC9DFC9DFC9DFC9DFC9D95
:1063C000FC9DFC9DFC9DFC9DFC9DFC9DFC9DFC9D05
:1063D000FC9DFC9DFC9DFC9DFC9DFC9DFC9DFC9DF5
:1063E000FC9DFC9DFC9DFC9DFC9DFC9DFC9DFC9DE5
:1063F000FC9DFC9DDB95FC9DFC9DFC9DFC9DFC9DFE
:10640000FC9DFC9DFC9DFC9DFC9DFC9DFC9DFC9DC4
:10641000FC9DFC9DFC9DFC9DFC9DFC9DFC9DFC9DB4
:10642000FC9DFC9DFC9DFC9DFC9DFC9DFC9DFC9DA4
:10643000FC9DFC9DFC9DFC9DFC9DFC9DFC9DFC9D94
:10644000FC9DFC9DFC9DFC9DFC9DFC9DFC9DFC9D84
:10645000FC9DFC9DFC9DFC9DFC9DFC9DFC9DFC9D74
:10646000FC9DFC9DFC9DFC9DFC9DFC9DFC9DFC9D64
:10647000FC9DFC9DFC9DFC9DFC9DFC9DFC9DFC9D54
:10648000FC9DFC9DFC9DFC9DFC9DFC9DFC9DFC9D44
:10649000FC9DFC9DFC9DFC9DFC9DFC9DFC9DFC9D34
:1064A000FC9DFC9DFC9DFC9DFC9DFC9DFC9DFC9D24
:1064B000FC9DFC9DFC9DFC9DFC9DFC9DFC9DFC9D14
:1064C000FC9DFC9DFC9DFC9DFC9DFC9DFC9DFC9D04
:1064D000FC9DFC9DFC9DFC9DFC9DFC9DFC9DFC9DF4
:1064E000FC9DFC9DFC9DFC9DFC9DFC9DFC9DFC9DE4
:1064F000FC9DFC9DFC9DFC9DFC9DFC9DFC9DFC9DD4
:10650000FC9DFC9DFC9DFC9DDC9DDC9DDC9DDC9D43
:10651000DC9DDC9DDC9DDC9DDB95FC9DFC9DFC9D5C
:10652000DB95DB95FC9DFC9DDC9DDC9DDC9DDC9D75
:10653000DC9DDC9DDC9DDC9DDC9DDC9DDC9DFC9D73
:10654000FC9DFC9DFC9DFC9DDC9DD99DB8AD19BEBC
:106550009FE7BFEFBFEFDFEFBFEFBFEFBFEFBFEFD3
:10656000BFEFBFEFBFEFBFEFBFEFBFEFBFEFDFEF9B
:106570009FE739BEB8A5DB9DFC9DFC9DFC9DDB958E
:10658000FC9DFC9DFC9DDB95DB95DB95DC95DB950F
:10659000FC9DFC9DDC9DDC9DFC9DFC9DFC9DFC9D73
:1065A000FC9DFC9DFC9DFC9DFC9DFC9DFC9DFC9D23
:1065B000FC9DFC9DFC9DFC9DFC9DFC9DFC9DFC9D13
:1065C000FC9DFC9DFC9DFC9DFC9DFC9DFC9DFC9D03
:1065D000FC9DFC9DFC9DFC9DFC9DFC9DFC9DFC9DF3
:1065E000FC9DFC9DFC9DFC9DFC9DFC9DFC9DFC9DE3
:1065F000FC9DFC9DFC9DFC9DFC9DFC9DFC9DFC9DD3
:10660000FC9DFC9DFC9DFC9DFC9DFC9DFC9DFC9DC2
:10661000FC9DFC9DFC9DFC9DFC9DFC9DFC9DFC9DB2
:10662000FC9DFC9DFC9DFC9DFC9DFC9DFC9DFC9DA2
:10663000FC9DFC9DFC9DFC9DFC9DFC9DFC9DFC9D92
:10664000FC9DFC9DFC9DFC9DFC9DFC9DFC9DFC9D82
:10665000FC9DFC9DFC9DFC9DFC9DFC9DFC9DFC9D72
:10666000FC9DFC9DFC9DFC9DFC9DFC9DFC9DFC9D62
:10667000FC9DFC9DFC9DFC9DFC9DFC9DFC9DFC9D52
:10668000FC9DFC9DFC9DFC9DFC9DFC9DFC9DFC9D42
:10669000FC9DFC9DFC9DFC9DFC9DFC9DFC9DFC9D32
:1066A000FC9DFC9DFC9DFC9DFC9DFC9DFC9DFC9D22
:1066B000FC9DFC9DFC9DFC9DFC9DFC9DFC9DFC9D12
:1066C000FC9DFC9DFC9DFC9DFC9DFC9DFC9DFC9D02
:1066D000FC9DFC9DFC9DFC9DFC9DFC9DFC9DFC9DF2
:1066E000FC9DFC9DFC9DFC9DDC9DDC9DDC9DDC9D62
:1066F000DC9DDC9DDC9DDC9DDB95FC9DFC9DFC9D7B
:10670000FC9DFC9DFC9DFC9DDC9DFC9DFC9DFC9DE1
:10671000FC9DDC9DDC9DDC9DDC9DFC9DFC9DFC9D31
:10672000FC9DFC9DFC9DFC9DDA9DB7ADFCD67EE7F3
:10673000BFEFBFEFBFEFBFEFBFEFDFEFBFEFBFEFC9
:10674000BFEFBFEFBFEFBFEFBFEFBFEFBFE7BFEFE1
:10675000BFEF7AC6B7ADDB9DFC9DFC9DFC9DFC9D0B
:10676000FC9DFC9DFC9DFC9DFC9DFC9DFC9DFC9D61
:10677000FC9DFC9DFC9DDC9DFC9DFC9DFC9DFC9D71
:10678000FC9DFC9DFC9DFC9DFC9DFC9DFC9DFC9D41
:10679000FC9DFC9DFC9DFC9DFC9DFC9DFC9DFC9D31
:1067A000FC9DFC9DFC9DFC9DFC9DFC9DFC9DFC9D21
:1067B000FC9DFC9DFC9DFC9DFC9DFC9DFC9DFC9D11
:1067C000FC9DFC9DFC9DFC9DFC9DFC9DFC9DFC9D01
:1067D000FC9DFC9DFC9DFC9DFC9DFC9DFC9DFC9DF1
:1067E000FC9DFC9DFC9DFC9DFC9DFC9DFC9DFC9DE1
:1067F000FC9DFC9DFC9DFC9DFC9DFC9DFC9DFC9DD1
:10680000FC9DFC9DFC9DFC9DFC9DFC9DFC9DFC9DC0
:10681000FC9DFC9DFC9DFC9DFC9DFC9DFC9DFC9DB0
:10682000FC9DFC9DFC9DFC9DFC9DFC9DFC9DFC9DA0
:10683000FC9DFC9DFC9DFC9DFC9DFC9DFC9DFC9D90
:10684000FC9DFC9DFC9DFC9DFC9DFC9DFC9DFC9D80
:10685000FC9DFC9DFC9DFC9DFC9DFC9DFC9DFC9D70
:10686000FC9DFC9DFC9DFC9DFC9DFC9DFC9DFC9D60
:10687000FC9DFC9DFC9DFC9DFC9DFC9DFC9DFC9D50
:10688000FC9DFC9DFC9DFC9DFC9DFC9DFC9DFC9D40
:10689000FC9DFC9DFC9DFC9DFC9DFC9DFC9DFC9D30
:1068A000FC9DFC9DFC9DFC9DFC9DFC9DFC9DFC9D20
:1068B000FC9DFC9DFC9DFC9DFC9DFC9DFC9DFC9D10
:1068C000FC9DFC9DFC9DFC9DDC9DDC9DDC9DDC9D80
:1068D000DC9DDC9DDC9DDC9DFC9DFC9DFC9DFC9D70
:1068E000FC9DFC9DFC9DFC9DFC9DFC9DFC9DFC9DE0
:1068F000FC9DFC9DDC9DDC9DDC9DFC9DFC9DFC9D30
:10690000FC9DFC9DFC9DFC9DDB9DD7AD7AC63DDFCB
:10691000BFEFDFEFBFEFBFEFDFEFBFEFBFEFBFEFC7
:10692000BFEFBFEFDFEFBFEFBFEFBFE759BEDCD672
:106930009FEF1DDFD8ADDB9DFC9DFC9DDB95DB95BE
:10694000FC9DFC9DFC9DFC9DFC9DFC9DFC9DFC9D7F
:10695000FC9DFC9DFC9DDC9DFC9DFC9DFC9DFC9D8F
:10696000FC9DFC9DFC9DFC9DFC9DFC9DFC9DFC9D5F
:10697000FC9DFC9DFC9DFC9DFC9DFC9DFC9DFC9D4F
:10698000FC9DFC9DFC9DFC9DFC9DFC9DFC9DFC9D3F
:10699000FC9DFC9DFC9DFC9DFC9DFC9DFC9DFC9D2F
:1069A000FC9DFC9DFC9DFC9DFC9DFC9DFC9DFC9D1F
:1069B000FC9DFC9DFC9DFC9DFC9DFC9DFC9DFC9D0F
:1069C000FC9DFC9DFC9DFC9DFC9DFC9DFC9DFC9DFF
:1069D000FC9DFC9DFC9DFC9DFC9DFC9DFC9DFC9DEF
:1069E000FC9DFC9DFC9DFC9DFC9DFC9DFC9DFC9DDF
:1069F000FC9DFC9DFC9DFC9DFC9DFC9DFC9DFC9DCF
:106A0000FC9DFC9DFC9DFC9DFC9DFC9DFC9DFC9DBE
:106A1000FC9DFC9DFC9DFC9DFC9DFC9DFC9DFC9DAE
:106A2000FC9DFC9DFC9DFC9DFC9DFC9DFC9DFC9D9E
:106A3000FC9DFC9DFC9DFC9DFC9DFC9DFC9DFC9D8E
:106A4000FC9DFC9DFC9DFC9DFC9DFC9DFC9DFC9D7E
:106A5000FC9DFC9DFC9DFC9DFC9DFC9DFC9DFC9D6E
:106A6000FC9DFC9DFC9DFC9DFC9DFC9DFC9DFC9D5E
:106A7000FC9DFC9DFC9DFC9DFC9DFC9DFC9DFC9D4E
:106A8000FC9DFC9DFC9DFC9DFC9DFC9DFC9DFC9D3E
:106A9000FC9DFC9DFC9DFC9DFC9DFC9DFC9DFC9D2E
:106AA000FC9DFC9DFC9DFC9DDC9DDC9DDC9DDC9D9E
:106AB000DC9DDC9DDC9DDC9DFC9DFC9DFC9DFC9D8E
:106AC000FC9DFC9DFC9DFC9DFC9DFC9DFC9DFC9DFE
:106AD000FC9DFC9DDC9DDC9DDC9DDC9DFC9DFC9D6E
:106AE000FC9DFC9DFC9DFC9DFC9DB8A5F8B5DBCEF6
:106AF000BFEFBFEFBFEFBFEFBFEFBFEFBFEFBFEF26
:106B0000DFEFBFEFDFEFBFEFBFEFBFEFFCD6F8B5B2
:106B100059BED8B5D9A5FB9DFC9DFC9DFC9DFC9D57
:106B2000FC9DFC9DFC9DFC9DFC9DFC9DFC9DFC9D9D
:106B3000FC9DFC9DDC9DDC9DFC9DFC9DFC9DFC9DCD
:106B4000FC9DFC9DFC9DFC9DFC9DFC9DFC9DFC9D7D
:106B5000FC9DFC9DFC9DFC9DFC9DFC9DFC9DFC9D6D
:106B6000FC9DFC9DFC9DFC9DFC9DFC9DFC9DFC9D5D
:106B7000FC9DFC9DFC9DFC9DFC9DFC9DFC9DFC9D4D
:106B8000FC9DFC9DFC9DFC9DFC9DFC9DFC9DFC9D3D
:106B9000FC9DFC9DFC9DFC9DFC9DFC9DFC9DFC9D2D
:106BA000FC9DFC9DFC9DFC9DFC9DFC9DFC9DFC9D1D
:106BB000FC9DFC9DFC9DFC9DFC9DFC9DFC9DFC9D0D
:106BC000FC9DFC9DFC9DFC9DFC9DFC9DFC9DFC9DFD
:106BD000FC9DFC9DFC9DFC9DFC9DFC9DFC9DFC9DED
:106BE000FC9DFC9DFC9DFC9DFC9DFC9DFC9DFC9DDD
:106BF000FC9DFC9DFC9DFC9DFC9DFC9DFC9DFC9DCD
:106C0000FC9DFC9DFC9DFC9DFC9DFC9DFC9DFC9DBC
:106C1000FC9DFC9DFC9DFC9DFC9DFC9DFC9DFC9DAC
:106C2000FC9DFC9DFC9DFC9DFC9DFC9DFC9DFC9D9C
:106C3000FC9DFC9DFC9DFC9DFC9DFC9DFC9DFC9D8C
:106C4000FC9DFC9DFC9DFC9DFC9DFC9DFC9DFC9D7C
:106C5000FC9DFC9DFC9DFC9DFC9DFC9DFC9DFC9D6C
:106C6000FC9DFC9DFC9DFC9DFC9DFC9DFC9DFC9D5C
:106C7000FC9DFC9DFC9DFC9DFC9DFC9DFC9DFC9D4C
:106C8000FC9DFC9DFC9DFC9DDC9DDC9DDC9DDC9DBC
:106C9000DC9DDC9DDC9DDC9DFC9DFC9DFC9DFC9DAC
:106CA000FC9DFC9DFC9DFC9DFC9DFC9DFC9DFC9D1C
:106CB000FC9DFC9DDC9DDC9DDC95DC9DFC9DFC9D94
:106CC000FC9DDB95FC9DFC9DFC9DB8A519BEDCD60A
:106CD0003DDFBFEFBFEFBFEFBFEFBFEFBFEFBFEFD6
:106CE000BFEFBFEFBFEF9FE7BFEFBFEF3DDFF8B5EF
:106CF000B9A5DA9DDB9DFC9DFC9DFC9DDB95DB959C
:106D0000FC9DFC9DFC9DFC9DFC9DFC9DFC9DFC9DBB
:106D1000FC9DFC9DDC9DDC9DFC9DFC9DFC9DFC9DEB
:106D2000FC9DFC9DFC9DFC9DFC9DFC9DFC9DFC9D9B
:106D3000FC9DFC9DFC9DFC9DFC9DFC9DFC9DFC9D8B
:106D4000FC9DFC9DFC9DFC9DFC9DFC9DFC9DFC9D7B
:106D5000FC9DFC9DFC9DFC9DFC9DFC9DFC9DFC9D6B
:106D6000FC9DFC9DFC9DFC9DFC9DFC9DFC9DFC9D5B
:106D7000FC9DFC9DFC9DFC9DFC9DFC9DFC9DFC9D4B
:106D8000FC9DFC9DFC9DFC9DFC9DFC9DFC9DFC9D3B
:106D9000FC9DFC9DFC9DFC9DFC9DFC9DFC9DFC9D2B
:106DA000FC9DFC9DFC9DFC9DFC9DFC9DFC9DFC9D1B
:106DB000FC9DFC9DFC9DFC9DFC9DFC9DFC9DFC9D0B
:106DC000FC9DFC9DFC9DFC9DFC9DFC9DFC9DFC9DFB
:106DD000FC9DFC9DFC9DFC9DFC9DFC9DFC9DFC9DEB
:106DE000FC9DFC9DFC9DFC9DFC9DFC9DFC9DFC9DDB
:106DF000FC9DFC9DFC9DFC9DFC9DFC9DFC9DFC9DCB
:106E0000FC9DFC9DFC9DFC9DFC9DFC9DFC9DFC9DBA
:106E1000FC9DFC9DFC9DFC9DFC9DFC9DFC9DFC9DAA
:106E2000FC9DFC9DFC9DFC9DFC9DFC9DFC9DFC9D9A
:106E3000FC9DFC9DFC9DFC9DFC9DFC9DFC9DFC9D8A
:106E4000FC9DFC9DFC9DFC9DFC9DFC9DFC9DFC9D7A
:106E5000FC9DFC9DFC9DFC9DFC9DFC9DFC9DFC9D6A
:106E6000FC9DFC9DFC9DFC9DFC9DFC9DFC9DFC9D5A
:106E7000FC9DFC9DFC9DFC9DFC9DFC9DFC9DFC9D4A
:106E8000FC9DFC9DFC9DFC9DFC9DFC9DFC9DFC9D3A
:106E9000FC9DFC9DFC9DFC9DFC9DFC9DFC9DFC9D2A
:106EA000FC9DFC9DFC9DFC9DFC9DDB9DD9A5B8AD8A
:106EB000D8B5BBCE5EDF5EE73DDFFCD69FE7BFEF18
:106EC000BFEFBFEFFCD6F8B539BE19BED8B5B9A52E
:106ED000DB9DFB9DFC9DFC9DFC9DFC9DFC9DFC9D0C
:106EE000FC9DFC9DFC9DFC9DFC9DFC9DFC9DFC9DDA
:106EF000FC9DFC9DFC9DFC9DFC9DFC9DFC9DFC9DCA
:106F0000FC9DFC9DFC9DFC9DFC9DFC9DFC9DFC9DB9
:106F1000FC9DFC9DFC9DFC9DFC9DFC9DFC9DFC9DA9
:106F2000FC9DFC9DFC9DFC9DFC9DFC9DFC9DFC9D99
:106F3000FC9DFC9DFC9DFC9DFC9DFC9DFC9DFC9D89
:106F4000FC9DFC9DFC9DFC9DFC9DFC9DFC9DFC9D79
:106F5000FC9DFC9DFC9DFC9DFC9DFC9DFC9DFC9D69
:106F6000FC9DFC9DFC9DFC9DFC9DFC9DFC9DFC9D59
:106F7000FC9DFC9DFC9DFC9DFC9DFC9DFC9DFC9D49
:106F8000FC9DFC9DFC9DFC9DFC9DFC9DFC9DFC9D39
:106F9000FC9DFC9DFC9DFC9DFC9DFC9DFC9DFC9D29
:106FA000FC9DFC9DFC9DFC9DFC9DFC9DFC9DFC9D19
:106FB000FC9DFC9DFC9DFC9DFC9DFC9DFC9DFC9D09
:106FC000FC9DFC9DFC9DFC9DFC9DFC9DFC9DFC9DF9
:106FD000FC9DFC9DFC9DFC9DFC9DFC9DFC9DFC9DE9
:106FE000FC9DFC9DFC9DFC9DFC9DFC9DFC9DFC9DD9
:106FF000FC9DFC9DFC9DFC9DFC9DFC9DFC9DFC9DC9
:10700000FC9DFC9DFC9DFC9DFC9DFC9DFC9DFC9DB8
:10701000FC9DFC9DFC9DFC9DFC9DFC9DFC9DFC9DA8
:10702000FC9DFC9DFC9DFC9DFC9DFC9DFC9DFC9D98
:10703000FC9DFC9DFC9DFC9DFC9DFC9DFC9DFC9D88
:10704000FC9DFC9DFC9DFC9DFC9DFC9DFC9DFC9D78
:10705000FC9DFC9DFC9DFC9DFC9DFC9DFC9DFC9D68
:10706000FC9DFC9DFC9DFC9DFC9DFC9DFC9DFC9D58
:10707000FC9DFC9DFC9DFC9DFC9DFC9DFC9DFC9D48
:10708000FC9DFC9DFC9DFC9DFC9DFC9DFB9DDB9D5A
:10709000DA9DB8ADD8ADD8B5D8ADB7AD19BE7AC602
:1070A0009BCE59C6D8ADD9A5D99DD9A5DA9DFB9D52
:1070B000FC9DFC9DFC95FC9DFC9DFC9DFC9DFC9D10
:1070C000FC9DFC9DFC9DFC9DFC9DFC9DFC9DFC9DF8
:1070D000FC9DFC9DFC9DFC9DFC9DFC9DFC9DFC9DE8
:1070E000FC9DFC9DFC9DFC9DFC9DFC9DFC9DFC9DD8
:1070F000FC9DFC9DFC9DFC9DFC9DFC9DFC9DFC9DC8
:10710000FC9DFC9DFC9DFC9DFC9DFC9DFC9DFC9DB7
:10711000FC9DFC9DFC9DFC9DFC9DFC9DFC9DFC9DA7
:10712000FC9DFC9DFC9DFC9DFC9DFC9DFC9DFC9D97
:10713000FC9DFC9DFC9DFC9DFC9DFC9DFC9DFC9D87
:10714000FC9DFC9DFC9DFC9DFC9DFC9DFC9DFC9D77
:10715000FC9DFC9DFC9DFC9DFC9DFC9DFC9DFC9D67
:10716000FC9DFC9DFC9DFC9DFC9DFC9DFC9DFC9D57
:10717000FC9DFC9DFC9DFC9DFC9DFC9DFC9DFC9D47
:10718000FC9DFC9DFC9DFC9DFC9DFC9DFC9DFC9D37
:10719000FC9DFC9DFC9DFC9DFC9DFC9DFC9DFC9D27
:1071A000FC9DFC9DFC9DFC9DFC9DFC9DFC9DFC9D17
:1071B000FC9DFC9DFC9DFC9DFC9DFC9DFC9DFC9D07
:1071C000FC9DFC9DFC9DFC9DFC9DFC9DFC9DFC9DF7
:1071D000FC9DFC9DFC9DFC9DFC9DFC9DFC9DFC9DE7
:1071E000FC9DFC9DFC9DFC9DFC9DFC9DFC9DFC9DD7
:1071F000FC9DFC9DFC9DFC9DFC9DFC9DFC9DFC9DC7
:10720000FC9DFC9DFC9DFC9DFC9DFC9DFC9DFC9DB6
:10721000FC9DFC9DFC9DFC9DFC9DFC9DFC9DFC9DA6
:10722000FC9DFC9DFC9DFC9DFC9DFC9DFC9DFC9D96
:10723000FC9DFC9DFC9DFC9DFC9DFC9DFC9DFC9D86
:10724000FC9DFC9DFC9DFC9DFC9DFC9DFC9DFC9D76
:10725000FC9DFC9DFC9DFC9DFC9DFC9DFC9DFC9D66
:10726000FC9DFC9DFC9DFC9DFC9DFC9DFC9DFC9D56
:10727000FC9DDC9DDB9DFB9DDB9DDB9DDAA5B9A51F
:10728000B8A5D9A5DB9DDC9DFC9DFC9DFC9DFC9DCE
:10729000FC9DFC9DFB9DFC9DFC9DFC9DFC9DFC9D27
:1072A000FC9DFC9DFC9DFC9DFC9DFC9DFC9DFC9D16
:1072B000FC9DFC9DFC9DFC9DFC9DFC9DFC9DFC9D06
:1072C000FC9DFC9DFC9DFC9DFC9DFC9DFC9DFC9DF6
:1072D000FC9DFC9DFC9DFC9DFC9DFC9DFC9DFC9DE6
:1072E000FC9DFC9DFC9DFC9DFC9DFC9DFC9DFC9DD6
:1072F000FC9DFC9DFC9DFC9DFC9DFC9DFC9DFC9DC6
:10730000FC9DFC9DFC9DFC9DFC9DFC9DFC9DFC9DB5
:10731000FC9DFC9DFC9DFC9DFC9DFC9DFC9DFC9DA5
:10732000FC9DFC9DFC9DFC9DFC9DFC9DFC9DFC9D95
:10733000FC9DFC9DFC9DFC9DFC9DFC9DFC9DFC9D85
:10734000FC9DFC9DFC9DFC9DFC9DFC9DFC9DFC9D75
:10735000FC9DFC9DFC9DFC9DFC9DFC9DFC9DFC9D65
:10736000FC9DFC9DFC9DFC9DFC9DFC9DFC9DFC9D55
:10737000FC9DFC9DFC9DFC9DFC9DFC9DFC9DFC9D45
:10738000FC9DFC9DFC9DFC9DFC9DFC9DFC9DFC9D35
:10739000FC9DFC9DFC9DFC9DFC9DFC9DFC9DFC9D25
:1073A000FC9DFC9DFC9DFC9DFC9DFC9DFC9DFC9D15
:1073B000FC9DFC9DFC9DFC9DFC9DFC9DFC9DFC9D05
:1073C000FC9DFC9DFC9DFC9DFC9DFC9DFC9DFC9DF5
:1073D000FC9DFC9DFC9DFC9DFC9DFC9DFC9DFC9DE5
:1073E000FC9DFC9DFC9DFC9DFC9DFC9DFC9DFC9DD5
:1073F000FC9DFC9DFC9DFC9DFC9DFC9DFC9DFC9DC5
:10740000FC9DFC9DFC9DFC9DFC9DFC9DFC9DFC9DB4
:10741000FC9DFC9DFC9DFC9DFC9DFC9DFC9DFC9DA4
:10742000FC9DFC9DFC9DFC9DFC9DFC9DFC9DFC9D94
:10743000FC9DFC9DFC9DFC9DFC9DFC9DFC9DFC9D84
:10744000FC9DFC9DFC9DFC9DFC9DFC9DFC9DFC9D74
:10745000FC9DFC9DFC9DFC9DFC9DFC9DFC9DFC9D64
:10746000FC9DFC9DFC9DFC9DFC9DFC9DFC9DFC9D54
:10747000FC9DFC9DFC9DFC9DFC9DFC9DFC9DFC9D44
:10748000FC9DFC9DFC9DFC9DFC9DFC9DFC9DFC9D34
:10749000FC9DFC9DFC9DFC9DFC9DFC95FC95FC953C
:1074A000FC95FC95FC95FC95FC95FC95FC95FC9554
:1074B000FC95FC95FC95FC95FC95FC95FC95FC9544
:1074C000FC95FC95FC95FC95FC95FC95FC95FC9D2C
:1074D000FC95FC95FC95FC95FC95FC95FC95FC9524
:1074E000FC95FC95FC95FC95FC9DFC9DFC95FC9504
:1074F000FC95FC95FC95FC95FC95FC95FC95FC9504
:10750000FC95FC95FC9DFC9DFC9DFC95FC95FC95DB
:10751000FC95FC95FC95FC95FC9DFC9DFC9DFC9DC3
:10752000FC9DFC9DFC9DFC9DFC9DFC9DFC9DFC9D93
:10753000FC9DFC9DFC9DFC9DFC9DFC9DFC9DFC9D83
:10754000FC9DFC9DFC9DFC9DFC9DFC9DFC9DFC9D73
:10755000FC9DFC9DFC9DFC9DFC9DFC9DFC9DFC9D63
:10756000FC9DFC9DFC9DFC9DFC9DFC9DFC9DFC9D53
:10757000FC9DFC9DFC9DFC9DFC9DFC9DFC9DFC9D43
:10758000FC9DFC9DFC9DFC95FC9DFC9DFC9DFC9D3B
:10759000FC95FC95FC95FC95FC95FC95FC95FC9563
:1075A000FC95FC9DFC9DFC9DFC9DFC9DFC9DFC9523
:1075B000FC95FC95FC95FC95FC95FC95FC95FC9543
:1075C000FC95FC95FC95FC95FC95FC95FC95FC9533
:1075D000FC95FC95FC95FC95FC95FC95FC95FC9523
:1075E000FC95FC95FC95FC95FC95FC95FC95FC9513
:1075F000FC95FC95FC95FC95FC95FC95FC95FC9503
:10760000FC95FC95FC95FC95FC95FC95FC95FC95F2
:10761000FC95FC95FC95FC95FC95FC95FC95FC95E2
:10762000FC95FC95FC95FC95FC95FC95FC95FC95D2
:10763000FC95FC95FC95FC95FC95FC95FC95FC95C2
:10764000FC95FC95FC95FC95FC95FC95FC95FC95B2
:10765000FC95FC95FC95FC95FC95FC95FC95FC95A2
:10766000FC95FC95FC95FC95FC95FC95FC95FC9592
:10767000FC95FC95FC95FC95FC9DFC9DFC9DFC9D62
:10768000FC95FC95FC95FC95FC95FC95FC95FC9572
:10769000FC95FC95FC95FC95FC95FC95FC95FC9562
:1076A000FC95FC95FC95FC95FC9DFC9DFC9DFC9D32
:1076B000FC9DFC95FC95FC95FC95FC95FC95FC953A
:1076C000FC95FC95FC9DFC9DFC9DFC9DFC95FC9512
:1076D000FC95FC95FC95FC95FC95FC95FC95FC9D1A
:1076E000FC9DFC9DFC9DFC95FC9DFC95FC95FC95F2
:1076F000FC95FC95FC9DFC9DFC9DFC9DFC9DFC9DD2
:10770000FC9DFC9DFC9DFC9DFC9DFC9DFC9DFC95B9
:10771000FC9DFC9DFC9DFC9DFC9DFC9DFC9DFC9DA1
:10772000FC9DFC9DFC9DFC9DFC9DFC9DFC9DFC9D91
:10773000FC9DFC9DFC9DFC9DFC9DFC9DFC9DFC9D81
:10774000FC9DFC9DFC9DFC9DFC9DFC9DFC9DFC9D71
:10775000FC9DFC9DFC9DFC9DFC9DFC9DFC9DFC9D61
:10776000FC9DFC9DFC9DFC9DFC9DFC9DFC9DFC9D51
:10777000FC9DFC9DFC9DFC9DFC95FC95FC95FC9561
:10778000FC95FC9DFC9DFC9DFC9DFC9DFC9DFC9D39
:10779000FC9DFC9DFC95FC95FC95FC95FC95FC9551
:1077A000FC95FC95FC95FC95FC95FC95FC95FC9D49
:1077B000FC9DFC95FC95FC95FC95FC95FC95FC9539
:1077C000FC95FC95FC95FC95FC9DFC9DFC9DFC9519
:1077D000FC95FC95FC95FC95FC95FC95FC95FC9521
:1077E000FC95FC95FC95FC95FC95FC95FC95FC9511
:1077F000FC95FC95FC95FC95FC95FC95FC95FC9501
:10780000FC95FC95FC95FC95FC95FC95FC95FC95F0
:10781000FC95FC95FC95FC95FC95FC95FC95FC95E0
:10782000FC95FC9DFC9DFC9DFC95FC95FC95FC95B8
:10783000FC95FC95FC95FC95FC95FC95FC95FC95C0
:10784000FC95FC95FC95FC95FC95FC95FC95FC95B0
:10785000FC95FC95FC95FC95FC9DFC9DFC9DFC9D80
:10786000FC95FC95FC95FC95FC95FC95FC95FC9590
:10787000FC95FC95FC95FC95FC95FC95FC95FC9580
:10788000FC95FC95FC95FC95FC9DFC9DFC9DFC9D50
:10789000FC95FC95FC95FC95FC95FC95FC95FC9560
:1078A000FC95FC95FC95FC95FC95FC95FC95FC9550
:1078B000FC95FC95FC95FC95FC95FC95FC95FC9540
:1078C000FC9DFC9DFC9DFC9DFC95FC95FC95FC9510
:1078D000FC95FC95FC95FC9DFC9DFC9DFC9DFC9DF8
:1078E000FC9DFC9DFC9DFC9DFC9DFC9DFC9DFC95D8
:1078F000FC9DFC9DFC9DFC9DFC9DFC9DFC9DFC9DC0
:10790000FC9DFC9DFC9DFC95FC9DFC9DFC9DFC9DB7
:10791000FC9DFC9DFC9DFC9DFC9DFC9DFC9DFC9D9F
:10792000FC9DFC9DFC9DFC9DFC9DFC9DFC9DFC9D8F
:10793000FC9DFC9DFC9DFC9DFC9DFC9DFC9DFC9D7F
:10794000FC9DFC9DFC9DFC9DFC9DFC9DFC9DFC9D6F
:10795000FC9DFC9DFC95FC95FC95FC95FC95FC958F
:10796000FC95FC9DFC9DFC9DFC9DFC9DFC9DFC9D57
:10797000FC95FC95FC95FC95FC95FC95FC95FC957F
:10798000FC95FC95FC95FC95FC95FC95FC95FC9D67
:10799000FC9DFC95FC95FC95FC95FC95FC95FC9557
:1079A000FC95FC95FC95FC95FC9DFC9DFC95FC953F
:1079B000FC95FC95FC95FC95FC95FC95FC95FC953F
:1079C000FC95FC95FC95FC95FC95FC95FC95FC952F
:1079D000FC95FC95FC95FC95FC95FC95FC95FC951F
:1079E000FC95FC95FC95FC95FC95FC95FC95FC950F
:1079F000FC95FC95FC95FC95FC95FC95FC95FC95FF
:107A0000FC95FC95FC95FC95FC95FC95FC95FC95EE
:107A1000FC95FC95FC95FC95FC95FC95FC95FC95DE
:107A2000FC95FC95FC95FC95FC95FC95FC95FC95CE
:107A3000FC95FC95FC95FC95FC95FC95FC95FC95BE
:107A4000FC95FC95FC95FC95FC95FC95FC95FC95AE
:107A5000FC95FC95FC95FC95FC95FC95FC95FC959E
:107A6000FC95FC95FC95FC95FC95FC95FC95FC958E
:107A7000FC95FC95FC95FC95FC95FC95FC95FC957E
:107A8000FC95FC95FC95FC95FC95FC95FC95FC956E
:107A9000FC95FC95FC95FC95FC9DFC9DFC95FC954E
:107AA000FC95FC95FC9DFC9DFC9DFC95FC9DFC9D26
:107AB000FC9DFC95FC95FC95FC95FC95FC95FC9536
:107AC000FC95FC95FC95FC95FC9DFC95FC95FC9526
:107AD000FC95FC9DFC9DFC9DFC9DFC9DFC9DFC9DE6
:107AE000FC9DFC9DFC9DFC95FC95FC9DFC9DFC9DDE
:107AF000FC9DFC9DFC9DFC9DFC9DFC9DFC9DFC9DBE
:107B0000FC9DFC9DFC9DFC9DFC9DFC9DFC9DFC9DAD
:107B1000FC9DFC9DFC9DFC9DFC9DFC9DFC95FC95AD
:107B2000FC95FC95FC95FC95FC95FC95FC95FC95CD
:107B3000FC95FC95FC95FC95FC95FC95FC95FC95BD
:107B4000FC95FC95FC95FC95FC9DFC9DFC95FC959D
:107B5000FC95FC95FC9DFC9DFC95FC95FC95FC958D
:107B6000FC95FC95FC95FC95FC9DFC9DFC9DFC9D6D
:107B7000FC9DFC9DFC9DFC9D1C9EFC95FC95FC9534
:107B8000FC95FC95FC95FC95FC95FC95FC95FC956D
:107B9000FC95FC95FC95FC95FC95FC95FC95FC955D
:107BA000FC95FC95FC95FC95FC95FC95FC95FC954D
:107BB000FC9DFC9DFC95FC95FC95FC95FC95FC952D
:107BC000FC95FC95FC95FC95FC95FC95FC95FC952D
:107BD000FC9DFC9DFC95FC95FC95FC95FC95FC950D
:107BE000FC95FC95FC95FC95FC95FC95FC95FC950D
:107BF0001C9EFC95FC9DFC95FC95FC95FC95FC95CC
:107C0000FC95FC95FC95FC95FC95FC95FC95FC95EC
:107C1000FC95FC95FC95FC95FC9DFC95FC9DFC95CC
:107C2000FC95FC95FC95FC95FC95FC95FC95FC95CC
:107C3000FC95FC95FC95FC95FC95FC95FC95FC95BC
:107C4000FC95FC95FC95FC95FC9DFC9DFC9DFC9D8C
:107C5000FC9DFC9DFC9DFC9DFC95FC95FC95FC957C
:107C6000FC95FC95FC95FC95FC9DFC9DFC9DFC9D6C
:107C7000FC9DFC9DFC9DFC9DFC9DFC9DFC9DFC9D3C
:107C8000FC9DFC9DFC9DFC9DFC95FC9DFC95FC9544
:107C9000FC9DFC95FC9DFC95FC95FC95FC95FC954C
:107CA000FC95FC95FC95FC95FC95FC95FC95FC954C
:107CB000FC95FC9DFC9DFC9DFC9DFC9DFC9DFC9D04
:107CC000FC9DFC9DFC9DFC95FC95FC95FC9DFC9D04
:107CD000FC9DFC9DFC9DFC9DFC9DFC9DFC9DFC9DDC
:107CE000FC9DFC9DFC9DFC9DFC9DFC9DFC9DFC9DCC
:107CF000FC9DFC9DFC9DFC9DFC9DFC95FC9DFC95CC
:107D0000FC95FC95FC9DFC9DFC95FC95FC95FC95DB
:107D1000FC95FC9DFC9DFC9DFC9DFC9DFC9DFC95AB
:107D2000FC95FC95FC95FC95FC95FC95FC95FC95CB
:107D3000FC95FC95FC95FC95FC9DFC9DFC9DFC9D9B
:107D4000FC9DFC9DFC95FC95FC95FC95FC95FC959B
:107D5000FC95FC95FC95FC95FC95FC95FC95FC959B
:107D6000FC95FC95FC95FC95FC95FC95FC95FC958B
:107D7000FC95FC95FC95FC95FC9DFC95FC9DFC9D63
:107D8000FC95FC95FC95FC95FC95FC95FC95FC956B
:107D9000FC95FC95FC95FC95FC95FC95FC95FC955B
:107DA000FC95FC95FC95FC95FC95FC95FC95FC954B
:107DB000FC95FC9DFC9DFC9DFC95FC95FC95FC9523
:107DC000FC95FC95FC95FC95FC95FC95FC95FC952B
:107DD000FC95FC95FC95FC95FC95FC95FC95FC951B
:107DE000FC95FC95FC95FC95FC95FC95FC95FC950B
:107DF000FC95FC95FC95FC95FC9DFC9DFC9DFC9DDB
:107E0000FC9DFC9DFC9DFC95FC9DFC9DFC9DFC95BA
:107E1000FC95FC9DFC9DFC9DFC9DFC9DFC9DFC9DA2
:107E2000FC9DFC9DFC9DFC9DFC9DFC9DFC9DFC9D8A
:107E3000FC9DFC9DFC9DFC9DFC9DFC9DFC9DFC9D7A
:107E4000FC9DFC9DFC9DFC9DFC9DFC9DFC9DFC9D6A
:107E5000FC9DFC9DFC9DFC9DFC9DFC9DFC9DFC9D5A
:107E6000FC9DFC9DFC9DFC9DFC9DFC9DFC95FC9D52
:107E7000FC9DFC95FC9DFC9DFC9DFC95FC9DFC9D4A
:107E8000FC9DFC9DFC9DFC9DFC9DFC9DFC9DFC9D2A
:107E9000FC9DFC9DFC9DFC9DFC9DFC9D1C9E1C9ED8
:107EA000FC9DFC9DFC9DFC9DFC9DFC9DFC9DFC9D0A
:107EB000FC9DFC9DFC9DFC9DFC9DFC9DFC9DFC9DFA
:107EC000FC9DFC9DFC9DFC9DFC9DFC9D1C9EFC9DC9
:107ED000FC9DFC9DFC9D1C9EFC9DFC9DFC9DFC9DB9
:107EE000FC9DFC9DFC9DFC9DFC9DFC9DFC9DFC9DCA
:107EF000FC9DFC9DFC9DFC95FC9DFC95FC95FC95DA
:107F0000FC95FC95FC95FC95FC9DFC9DFC9DFC9DC9
:107F1000FC9DFC9DFC9DFC9DFC9DFC9DFC9DFC9D99
:107F2000FC9DFC9DFC9DFC9DFC9DFC9DFC9DFC9D89
:107F3000FC9DFC9DFC9DFC9DFC9DFC9DFC9DFC9D79
:107F4000FC9DFC9DFC9DFC9DFC9DFC9DFC9DFC9D69
:107F5000FC9DFC9DFC9DFC9DFC9DFC95FC9DFC9D61
:107F6000FC9DFC9DFC9DFC9DFC9DFC9DFC9DFC9D49
:107F7000FC9DFC9DFC95FC95FC9DFC9DFC9DFC9D49
:107F8000FC9DFC9DFC9DFC9DFC95FC9DFC9DFC9D31
:107F9000FC9DFC9DFC9DFC9DFC9DFC9DFC9DFC9D19
:107FA000FC9DFC9DFC9DFC9DFC9DFC9DFC9DFC9D09
:107FB000FC9DFC9DFC9DFC9DFC9DFC9DFC9DFC9DF9
:107FC000FC9DFC9DFC9DFC95FC9DFC9DFC9DFC9DF1
:107FD000FC9DFC9DFC9DFC9DFC9DFC9DFC9DFC9DD9
:107FE000FC9DFC9DFC9DFC9DFC95FC95FC95FC95E9
:107FF000FC95FC95FC95FC95FC95FC95FC95FC95F9
:10800000FC95FC95FC95FC95FC95FC95FC95FC95E8
:10801000FC95FC95FC95FC95FC95FC95FC95FC95D8
:10802000FC95FC95FC95FC95FC95FC95FC95FC95C8
:10803000FC95FC95FC95FC95FC95FC95FC95FC95B8
:10804000FC95FC95FC95FC95FC95FC95FC95FC95A8
:10805000FC95FC95FC95FC95FC95FC95FC95FC9598
:10806000FC95FC95FC9DFC9DFC9DFC9DFC9DFC9D58
:108070001C9EFC9DFC9DFC9DFC9DFC9DFC9DFC9D17
:10808000FC9DFC9DFC9DFC9DFC9DFC9DFC9DFC9D28
:108090001C9EFC9DFC9D1C9EFC9DFC9D1C9EFC9DB5
:1080A000FC9D1C9EFC9DFC9DFC9DFC9DFC9DFC9DE7
:1080B000FC9DFC9DFC9D1C9EFC9DFC9DFC9DFC9DD7
:1080C000FC9DFC9DFC9DFC9DFC9DFC9DFC9DFC9DE8
:1080D000FC9DFC9DFC9DFC95FC95FC95FC95FC9500
:1080E000FC95FC95FC95FC95FC95FC95FC95FC9508
:1080F000FC95FC95FC95FC95FC95FC95FC95FC9DF0
:10810000FC9DFC9DFC95FC95FC95FC95FC95FC95D7
:10811000FC95FC95FC95FC95FC95FC95FC95FC95D7
:10812000FC95FC95FC95FC95FC95FC95FC95FC95C7
:10813000FC95FC95FC95FC95FC95FC95FC95FC95B7
:10814000FC95FC95FC95FC9DFC95FC9DFC9DFC9D87
:10815000FC9DFC95FC95FC95FC95FC95FC95FC958F
:10816000FC95FC95FC95FC95FC95FC95FC95FC9587
:10817000FC95FC95FC95FC95FC95FC95FC95FC9577
:10818000FC95FC95FC95FC9DFC9DFC95FC95FC9557
:10819000FC95FC95FC95FC95FC9DFC9DFC9DFC9D37
:1081A000FC9DFC9DFC95FC95FC9DFC9DFC9DFC9D17
:1081B000FC9DFC9DFC9DFC9DFC9DFC9DFC9DFC9DF7
:1081C000FC9DFC9DFC9DFC9DFC9DFC9DFC9DFC9DE7
:1081D000FC9DFC9DFC9DFC9DFC95FC95FC95FC95F7
:1081E000FC9DFC9DFC9DFC9DFC9DFC9DFC9DFC9DC7
:1081F000FC9DFC9DFC9DFC9DFC9DFC9DFC9DFC9DB7
:10820000FC9DFC9DFC9DFC9DFC9DFC9DFC9DFC9DA6
:10821000FC9DFC9DFC9DFC9DFC9DFC9DFC9DFC9D96
:10822000FC9DFC9DFC9DFC9DFC9DFC9DFC9DFC9D86
:10823000FC9DFC9DFC9DFC9DFC9DFC9DFC9DFC9D76
:10824000FC9DFC9DFC9DFC9DFC9DFC9D1C9EFC9D45
:10825000FC9DFC9DFC9DFC9DFC9DFC9DFC9DFC9D56
:10826000FC9DFC9DFC9DFC9DFC9DFC9DFC9DFC9D46
:108270001C9E1C9E1C9E1C9E1C9EFC9D1C9E1C9E4F
:108280001C9E1C9EFC9DFC9D1C9EFC9D1C9EFC9DA2
:10829000FC9DFC9DFC9D1C9E1C9EFC9DFC9DFC9DD4
:1082A000FC9DFC9DFC9DFC9DFC9DFC9DFC9DFC9D06
:1082B000FC9DFC9DFC9DFC9DFC9DFC9DFC9DFC9DF6
:1082C000FC9DFC9DFC9DFC95FC9DFC9DFC9DFC9DEE
:1082D000FC9DFC9DFC9DFC9DFC9DFC9DFC9DFC9DD6
:1082E000FC95FC95FC95FC95FC9DFC9DFC9DFC9DE6
:1082F000FC95FC95FC95FC95FC9DFC9DFC9DFC9DD6
:10830000FC9DFC9DFC9DFC9DFC95FC95FC9DFC9DB5
:10831000FC9DFC9DFC9DFC9DFC9DFC9DFC9DFC9D95
:10832000FC9DFC9DFC9DFC9DFC9DFC9DFC9DFC9D85
:10833000FC95FC95FC95FC95FC9DFC9DFC9DFC9D95
:10834000FC9DFC9DFC9DFC9DFC9DFC9DFC9DFC9D65
:10835000FC9DFC9DFC9DFC9DFC9DFC9DFC9DFC9D55
:10836000FC9DFC9DFC9DFC9DFC9DFC9DFC9DFC9D45
:10837000FC9DFC9DFC9DFC9DFC9DFC9DFC9DFC9D35
:10838000FC9DFC95FC95FC95FC95FC95FC95FC955D
:10839000FC95FC95FC95FC95FC9DFC9DFC9DFC9D35
:1083A000FC9DFC9DFC9D1C9EFC9DFC9DFC9DFC9DE4
:1083B000FC95FC95FC95FC9DFC9DFC9DFC9DFC9D0D
:1083C000FC9DFC9DFC9DFC9DFC9DFC9DFC9DFC9DE5
:1083D000FC9DFC9DFC9DFC9DFC9DFC9DFC9DFC9DD5
:1083E000FC9DFC9DFC9DFC9DFC9DFC9DFC9DFC9DC5
:1083F000FC9DFC9DFC9DFC9DFC9DFC9DFC9DFC9DB5
:10840000FC9DFC9DFC9DFC9DFC9DFC9DFC9DFC9DA4
:10841000FC9DFC9DFC9DFC9DFC9DFC9DFC9DFC9D94
:10842000FC9DFC9DFC9DFC9DFC9DFC9DFC9DFC9D84
:10843000FC9DFC9DFC9D1C9EFC9DFC9DFC9DFC9D53
:10844000FC9D1C9E1C9E1C9EFC9D1C9EFC9DFC9DE0
