:10000000F8FF00201104000033280000332800000E
:100010003328000033280000332800003328000074
:100020003328000033280000332800003328000064
:100030003328000033280000332800003328000054
:100040003328000033280000332800003328000044
:10040000FFFFFFFFFFFFFFFFFFFFFFFFFEFFFFFFFD
:1004100062B602F023FBFEE72DE9F04FA1B0824661
:1004200002AE002017461D46029170620DF144088D
:100430000AE017F8011B0298D0470290002800F04C
:10044000D482706A401C7062387808B9706ACEE253
:100450002528EED10020F06030617061B061F0615C
:10046000306201E040F0010017F8011F2029F9D0A7
:1004700023290DD02B2904D02D2906D030290AD0CC
:100480000CE040F0020080B2EEE740F00400FAE732
:1004900040F00800F7E740F01000F4E72A290DD1FA
:1004A00029680A1D2A600968F162002904D54942B9
:1004B00040F00400F16280B27F1C13E00021F16281
:1004C0000BE0F16A6FF00043994205D001EB810324
:1004D00002EB43013039F1627F1C3A78A2F130011E
:1004E0000A29EED339782E2903D04FF0FF31B162BB
:1004F0001EE017F8011F2A2906D129680A1D2A6063
:100500007F1C0968B16213E00021B1620BE0B16A9F
:100510006FF00043994205D001EB810302EB4301E8
:100520003039B1627F1C3A78A2F130010A29EED34A
:1005300030860FF6BC20397800F078FD08B117F846
:10054000010B8DF83A009DF83A00682802BF39780F
:100550006829622005D06C2804BF38786C2803D144
:1005600071208DF83A007F1C11A8B0603978B1F184
:10057000250023D02038022840F2B980133800F03B
:10058000E1800B3800F07781401E00F02081401E92
:10059000022840F2AC80001F00F01981401F7BD080
:1005A000401E00F0CF80401E22D0C01E0BD0801E07
:1005B00000F0C880C01E00F0C58064E1F068411CF6
:1005C000F160252169E12868011D29600068B26A8F
:1005D0007060002A02D500F035FD07E0002100F030
:1005E0004DFD00281ABF7168401AB06A306156E1AB
:1005F0002868011D296000210068CDE900014FF045
:100600003C0E11A87060DDE9000111B908B9B26AA9
:10061000CAB10206120FA0EB02123032AEF1010392
:10062000D2B29E463A2AA8BF2732000903F8082012
:1006300040EA0170090908BF002804D0726811ABB4
:1006400073449A42E5D311A971447160CEF13C0024
:10065000B16A3061884207DA081AB0614FF6EF716B
:10066000308E084030861AE1002940F1188196F852
:10067000301001F01401102940F01181F16AF26884
:10068000891AB269891AA1EB000EBEF1010FC0F2FE
:100690000681C6F818E002E19DF83A00622818D0F9
:1006A000682806D06A280BD06C2819D0712807D08A
:1006B00016E02868011D29600068716A0180EEE07B
:1006C0002A68101D28601268706AC117C2E900010B
:1006D000E5E02868011D29600068716A0170DEE0AC
:1006E0002868011D29600068716A0160D7E02868E8
:1006F000C01D20F00700286000F108022A60D0E940
:100700000023CDE90023002B04D5F068421CF260E1
:100710002D220DE0308E820704D5F068421CF26075
:100720002B2205E0C00705D5F068421CF2602022AC
:1007300000F80820F06811AA8018706000A800F086
:10074000E3F9ACE09DF83A006C2808BF2A6811D0A4
:10075000712808BF2A6802D02A686A280AD1D21DE7
:1007600022F007022A60144604F108022A60D4E944
:10077000002303E0131D2B6000231268CDE9002342
:10078000682808BF92B207D0622808BFD2B203D04F
:10079000742818BF7A2802D10023CDE9002396F8E7
:1007A000300000075FD5DDE90023002B08BF002AD9
:1007B00059D041F02000782855D1F068302200F857
:1007C0000820401C421CF26000F808104BE09DF825
:1007D0003A0062280CD0682810D06A281AD06C28F9
:1007E00023D0712816D074281FD07A280CD01CE092
:1007F0002868021D2A6090F900201AE02868021D6E
:100800002A60B0F9002014E02868021D2A60002345
:1008100002680FE02868C01D20F00700286000F182
:1008200008022A60D0E9002304E02868021D2A603B
:100830000268D317CDE90023002B04DAF068421CCC
:10084000F2602D220DE0308E820704D5F068421C44
:10085000F2602B2205E0C00705D5F068421CF2606B
:10086000202200F80820F06811AA8018706000A803
:1008700000F0C0F813E0F068411CF16029680A1D1F
:100880002A60096809E0F068421CF260252200F83D
:10089000082021B1F068421CF26000F80810F06AEC
:1008A000F168401AB169401A3169401AF169401A79
:1008B0007169401A316AA0EB010996F830007F1C7B
:1008C000400710D420208DF84000002409E00123C7
:1008D00010AA00A9504600F073FB002840F0858064
:1008E000641C4C45F3DBF4680DF1440B0AE01BF883
:1008F000011B0298D0470290002876D0706A401CF5
:100900007062641E002CF2D130208DF840004FF050
:10091000000BB46909E0012310AA00A9504600F0B9
:100920004FFB002861D10BF1010BA345F3DB3469C8
:10093000D6F804B00AE01BF8011B0298D0470290D9
:10094000002852D0706A401C7062641E002CF2D1E4
:1009500030208DF840004FF0000BF46909E00123CE
:1009600010AA00A9504600F02BFB00283DD10BF146
:10097000010BA345F3DB30697168746900EB010B6F
:1009800009E01BF8011B0298D047029068B3706A17
:10099000401C7062641E002CF3D130208DF84000A2
:1009A0004FF0000B346A08E0012310AA00A950465A
:1009B00000F006FBC8B90BF1010BA345F4DB96F878
:1009C000300040077FF540AD20208DF84000002426
:1009D00000E0641C4C45BFF637AD012310AA00A906
:1009E000504600F0EDFA0028F3D04FF0FF3021B070
:1009F000BDE8F08F2DE9FA47064682B035690A4610
:100A00006F2A08BF082705D041F02000782814BFBE
:100A10000A271027D6E900013C2480468946642A2B
:100A200018BF692A05D1002903DAD8F1000869EB5B
:100A30004909B9F1000F08BFB8F1000F0CD1306BB4
:100A400050B9082F3BD196F83800000737D5302031
:100A50003B2485F83B0032E0CDE90089FB17404696
:100A600049463A4600F036FBB846A8FB0023DDE9CC
:100A70000089A8EB02023032A4F1010AD2B2544636
:100A80003A2A03DB9DF80830513B9A180AF80520F2
:100A900080465FEA010908BFB8F1000F03D0F06893
:100AA00061198842D8D3082F09D196F83800000779
:100AB00005D5605D302802D0641E30206055C4F139
:100AC0003C00B0616119F160316B884207DA081AA5
:100AD00030624FF6EF71308F0840308710E0002908
:100AE0000ED596F8381001F01401102908D1716B59
:100AF0007269891A326A891A081A0128A8BF3062F5
:100B000004B0BDE8F08700002DE9F34F8BB0D0E9C9
:100B10000089006B01AF002802D50B98062106E082
:100B200004BF41F02000672802D10B980121016326
:100B30000B984168C1F30A5040F2FF72904220D1F5
:100B4000080302BF0B98006800280AD10B98032104
:100B500081619DF8300061381A2858D30FF2A44102
:100B600009E00B98032181619DF8300061381A2853
:100B70004AD30FF288410B98C068032200F022FB91
:100B800001E1012807DA0B9800F057FB012802DB8E
:100B900000230026EEE00B9A526840F2FE3161F32A
:100BA0001E520B994A6040F2FE31461A40464946B1
:100BB0000022002300F062FB38BF89F0004936B202
:100BC00047F2975070434A49DFF828B190FBF1F69D
:100BD00036B2C6F107079246012F1BDBF80707D58F
:100BE00052465B464046494600F060FB80468946D7
:100BF0007F105046594652465B4600F057FB8246EE
:100C00008B46002FEAD126E00FF2EC31B3E70FF26A
:100C1000F031B0E77F420024374D12E0F80707D5E6
:100C200052465B462046294600F040FB04460D46EE
:100C30007F105046594652465B4600F037FB8246CD
:100C40008B46002FEAD14046494622462B4600F00B
:100C5000FFFB804689469DF8300040F02005662D58
:100C60000CBF06F10A0006200B99096B4718142FD8
:100C7000A8BF132730208DF804000DF10504DFF81C
:100C80007CB0012F3CDB4046494600F005FD0146A3
:100C900004F1080204234FF00A0CB1FBFCFC0CEB3E
:100CA0008C04A1EB4401303102F8011D0A21BCFB88
:100CB000F1FE0EEB8E04ACEB44043034714602F8C6
:100CC000014D5B1EE7D1083F02F10804012FD8DB7C
:100CD00000F0F8FC02460B464046494600F000FD95
:100CE00000225B4600F0E2FA80468946CBE700BF6F
:100CF000A0860100000024400000F03F84D7974107
:100D00000DF10500201A0DF1050702E0401E761EC8
:100D10007F1C39783029F9D0662D02D136B2711C8A
:100D200003E0652D0CBF012100210B9A126B8B187B
:100D30001BB29842B8BF03461BB219001AD48142B5
:100D400004DAC85D3528A8BF392000DA3020CA1976
:100D5000521E00E05B1E12F80159491E8542F9D06F
:100D6000392802D1C85D401CC855002902D57F1E14
:100D70005B1C761C36B29DF830100B9800961BB2A7
:100D80003A4600F003F80DB0BDE8F08F2DE9F047CA
:100D900086B006468A4690461D4600F07EFD406AB3
:100DA000376B90F80090012D02DA01250FF25828D8
:100DB0004AF02000BDF93840662808BF641C13D0F3
:100DC000672840F0878014F1040F72DBBC4270DAB0
:100DD00096F83800641C000702D4BD42B8BF2F4605
:100DE00024B23F1B48BF0027F068B16924B2012C30
:100DF00021DA30234A1C0B54012F03DA96F83810FD
:100E0000090702D502F80090521CB261E742B8BF50
:100E10007C4224B26142E7197162AF42B8BF3D46DD
:100E20002DB2F5612A46B3694146181800F0CAF997
:100E3000781BB062ADE00818A54216DA2A46414692
:100E400000F0C0F9B1696918B161601B7062012FCF
:100E500003DA96F83800000705D5F06801F800902D
:100E6000F069401CF061B76293E02246414600F011
:100E7000A9F9B06920182D1B012F03DA96F8381054
:100E8000090703D5F16800F80190401C2DB2B0614C
:100E9000AF42B8BF3D46F3682DB22A4604EB0801C5
:100EA000C01800F08FF9B0692818B061781B706223
:100EB0006FE0BD4204DA96F83810090758BF2F4694
:100EC0007F1E48BF0027BAF1670F0CBF4FF0650ABD
:100ED0004FF0450AB169F06818F8013B0B544A1C01
:100EE000012F05DA96F83810090758BFB26115D5F9
:100EF00002F80090531CB361012F0FDB6D1E2DB261
:100F0000AF42B8BF3D462DB22A464146181800F000
:100F100059F9B0692818B061781B7062B069F1683E
:100F200000EB0108200008F801AB03D42B2008F8DF
:100F3000010B03E02D2108F8011B6442002502AFDC
:100F400008E00A2200A800F0C1FC019807F8010B94
:100F50006D1C009C21B20129F3DA022D06DA4AF059
:100F60002000652804BF302008F8010B4DB930205F
:100F700008F8010B07E06D1E02A8285C303008F865
:100F8000010B012DF7DAB069F1684018A8EB0000F9
:100F9000F06196F8380000F0140010280DD1706947
:100FA000B1690818716A0818F1690818B16A081857
:100FB000716B8842BCBF081A306206B0BDE8F0878A
:100FC000F8B504460D4616461F46002004E0E86AC0
:100FD000401CE8627F1E002047B116F8011BA8687C
:100FE000A047A8600028F2D14FF0FF30F2BD00000A
:100FF000686A6C747A4C00006E616E004E414E005F
:10100000696E6600494E4600300050F8041B61B11D
:1010100050F8042BD30744BFA9F101039A18002309
:1010200042F8043B091FFAD1EFE770470278C9B2D2
:101030008A421AB11CBF10F8012FF9E718BF00202F
:101040007047000000F10103810704D010F8011B74
:1010500089B18107FAD10268B2F10131914311F0EF
:10106000803F04BF50F8042FF6E710F8011B11B1C0
:1010700010F8011BFBE7C01A70470000C9B28307D4
:1010800006D0521E22D310F8013B9942F7D11FE03F
:10109000083A13D302F1040241EA012141EA014175
:1010A00050F8043B121F21BF4B40A3F1013C2CEA36
:1010B000030C1CF0803FF3D0C9B2001F083210F8B7
:1010C000013B521E28BF91EA030FF8D818BF012038
:1010D000401E70471B4213D1094236D12AB18446C3
:1010E000B0FBF2F002FB10C2704700F0F7BBFCD37C
:1010F0000022002370470B000200002100207047EF
:10110000904271EB030CF6D370B5B1FA81F4B3FAE7
:1011100083F52C1BA340C4F1200532FA05F63343B6
:10112000A2405FF00046E64002E05B085FEA320260
:10113000841A71EB030524BF204629467641F4D377
:1011400002000B003000002170BD012ACFD970B51C
:10115000140C20D0B1FA81F4B2FA82F5C4F1200463
:101160006419B4F12006D6D3B2405FF00044F440D5
:10117000002502E052085FEA3303C61A71EB020E43
:1011800024BF3046714664416D41F3D302000B0029
:101190002000290070BD0C46B1FBF2F102FB1145A5
:1011A0002D0445EA1045B5FBF2F402FB145580B25C
:1011B00040EA0545B5FBF2F002FB105240EA04405C
:1011C00070BD000062B38B0708D0521E11F8013BBE
:1011D00000F8013B00F024808B07F6D1830740F034
:1011E000208000BF103A07D330B4B1E83810103A6D
:1011F000A0E83810F9D230BC530724BFB1E808107A
:10120000A0E8081044BF51F8043B40F8043BD20763
:1012100024BF31F8022B20F8022B44BF0B78037057
:101220007047083A07D3B1E80810083A40F8043B81
:1012300040F804CBF7D25307E4E730B4436803F037
:10124000004201211B031B0B436004BF0368002BFA
:1012500008D10DE00368DD0F45EA440444605B00FB
:101260000360491E4468E302F4D523031B0B43606B
:1012700043681A434260084630BC70474FF4001C74
:101280001CEB410F94BF1CEB430F09E041EA030C38
:1012900050EA4C0C52EA0C0C03D2994208BF90421F
:1012A000704714BF8B42824270470000B0B581EA9C
:1012B000030C0CF0004C40F2FF7515EA11541DBFF1
:1012C00015EA1357AC42AF4239E0E41923EA45531B
:1012D00043F48013C90241F0004141EA505EC70265
:1012E0001100A7FB020200284FF00000EEFB0120D6
:1012F0004FF00001E3FB072118BF42F00102401844
:1013000000214941E3FB0E01A4F580640F0302D2E2
:1013100052004041494154F101046CDD470872F12B
:10132000004250F1000051EB0451A1F580115CBF67
:1013300041EA0C01B0BD4CEA05510020B0BD05EA00
:101340001357AC4214BFAF4241E050EA410E1CBFFC
:1013500052EA430E02E061460020B0BD24423C4404
:101360001BD15FEA070EF6D0090302BF0146002039
:10137000AEF1140EB1FA81F7AEEB070401FA07FEE5
:101380000C37C7F1200100FA07F7C8404EEA000EFB
:1013900023EA455343F48013A2E733F00043B3FA42
:1013A00083F704BFB2FA82FE77440B3FE41BB7F128
:1013B000200E2FBF02FA0EF3BB40C7F1200E22FA17
:1013C0000EFE38BF43EA0E03BA40641C82E750EABF
:1013D000410E14BF52EA430E6FF000014FF40017A4
:1013E00017EB430F8ABF194617EB410FB5E74CEADD
:1013F00005510020B0BDD4F10104B4F120070FDA8B
:10140000C4F12007520828BF42F0010210FA07F584
:1014100001FA07F7E1BF2A43E0403843E1400FE01B
:10142000352C98DCC7F1200452EA400220FA07F27A
:1014300018BF42F0010231FA07F0A1400A4300212F
:1014400072F1004250F1000051EB0C01B0BD000000
:10145000F0B540F2FF7581EA030C0CF0004C15EA80
:1014600011541DBF15EA1357AC42AF42E5E0BC4131
:10147000C1F31301C3F31303801A994143F480139A
:1014800004D2641E4000494180185941C90241EA12
:101490005051B1FBF3F603FB1611A2FB0675D7EB17
:1014A000C020A94102D2761E80185941C90241EAE2
:1014B0005051B1FBF3FE03FB1E11A2FB0E75D7EBDF
:1014C000C020A94103D2AEF1010E80185941890212
:1014D00041EA9051760546EA8E2EB1FBF3F603FB06
:1014E0001611A2FB0675D7EB8020A94102D2761E09
:1014F00080185941C90241EA50514EEA060EB1FB2B
:10150000F3F603FB1611A2FB0675D7EBC020A94129
:1015100002D2761E80185941C90241EA5051B1FBEE
:10152000F3F703FB1711A2FB0735D3EBC020A9414A
:1015300067F100070CBF004247F0010766F3D527AB
:101540004FEA1E31B80814F5806412DDBD0775F14D
:10155000004250EB0E5051EB045111F5801F5CBF5F
:1015600041EA0C01F0BD4CF07F6141F0E041002008
:10157000F0BDBD076D0840EA0E5041F48011D4F172
:101580000104B4F120060ADAC4F120060200E040AA
:1015900001FA06F3E1401843B24015430EE0342C43
:1015A00013DCC6F1200445EA40056D0820FA06F276
:1015B000154321FA06F0A1400D43002175F10042C8
:1015C00050F1000051EB0C01F0BD00205FEA0C016E
:1015D000F0BDCFB992185B41B3FA83F704BFB2FAFA
:1015E00082F6BF190B3FB7F120062FBF02FA06F3B0
:1015F000BB40C7F1200622FA06F638BF3343BA4093
:101600001CB1E419641E33E77F4231F00041B1FAA6
:1016100081F404BFB0FA80F6A4190B3CB4F12006A3
:101620002FBF00FA06F1A140C4F1200620FA06F609
:1016300038BF3143A0403C1B1AE7AC421ABF05EA51
:101640001357AF4212E050EA41061CBF52EA43066C
:10165000BFE750EA4107304661461CBF41EA0551E9
:10166000F0BD52EA430C08BFC143F0BD00204FF467
:10167000001616EB410F98BF16EB430F08BF16EB91
:10168000410F24BFC14305E016EB430F0CBF614679
:101690004CEA0551F0BD0000400D40EAC120490070
:1016A00080F00D8040F00040490DA1F58061491C9B
:1016B00005D4D1F11F0154BFC840C01770474FF087
:1016C00000007047010000BF09D0B0FA80F18840E7
:1016D000C91CC1F58461090501EBD02140057047A3
:1016E00070B44FF0004591EA030F44BF6B4000F027
:1016F000F7B800BF841A71EB030604D26E40001BDA
:10170000B141121973414FF4001C1CEB410F34BF5F
:101710007CEB430684E00C0DA4EB1356362E7DDCE7
:10172000012E43DC45EAC32343EA525312BFD202DF
:1017300092025B08240545EAC12141EA5051D2EBEF
:10174000C020994125D407D1B0FA80F610FA06F1ED
:1017500064D00020203608E0B1FA81F6B140C6F12D
:10176000200220FA02F21143B0404FEAF474B4EBC5
:10177000465434F001064FEA74040AD8D6F5001630
:10178000760D04F00044F04061FA06F25040F1405A
:101790004840C00A40EA415021F0004128BF5FEABA
:1017A000500550F1000044EBD12137E045EAC32356
:1017B000DB0A45EAC121C90AB6F120050EDD42EA7D
:1017C0000242120CC5F1200603FA06F6EB4042EA8B
:1017D00006056D42984161F100010DE062FA06F5DF
:1017E000F240554063FA06FC82EA0C02F3405A408C
:1017F0006D42904161EB030111F4801F05D1641E1D
:10180000620502D06D004041494121F48011430836
:1018100075F1004350F1000041EB045170BC70477A
:101820001CEB410F15D223F0004352EA43060BD0C4
:101830004FEA4C0CBCEB410F04D80C0D661E342E45
:10184000B7DDEBE7801A994150EA410608BF002155
:10185000E4E708BF1CEB430F28BF6FF00001DDE792
:1018600080B5134800F0A6F80FF24801016041600E
:101870008160C1600161416181610FF23C0242629D
:101880008162C162016341630FF2300282630FF231
:101890003402C2630164416401BD10B5044800F024
:1018A00089F80446206808B9FFF7DAFF204610BD22
:1018B000A40CFF1F000000002E00000066616C7386
:1018C00065000000747275650000000091FBF2F382
:1018D00003FB1211C0E9003170470000704700009F
:1018E000841A71EB030603D2001BB1411219734134
:1018F0004FF4001C1CEB410F34BF7CEB430443E06E
:101900000C0DA4EB1356352E50DC45EAC323DB0A3D
:1019100045EAC121C912B6F120050DDD63FA05F6CD
:10192000EB4086EA0305124218BF45F00105C018D6
:1019300051F100010CD213E062FA06F5F240554075
:10194000F3415A40B340F3405A408018594107D3FD
:1019500049085FEA30005FEA350528BF45F0010518
:1019600001F58011420875F1004250F1000041EB91
:10197000045170BC4FF4001C1CEB410F38BF704782
:101980000020090D090570471CEB410F10D252EAE7
:1019900043060BD0BCEB410F05D80C0DAB43661EC4
:1019A000342EB5DD02E0AB438018594170BC70475E
:1019B00070BC70477047000000000000000000008D
:1019C0000000000000000000000000000000000017
:1019D0000000000000004E6F6E4D61736B61626C21
:1019E0006500000000486172644661756C74000017
:1019F000000000004D656D4D616E6167656D656E3F
:101A00007400004275734661756C7400000000003C
:101A1000000055736167654661756C7400000000D5
:101A200000000000000000000000000000000000B6
:101A300000000000000000000000000000000000A6
:101A40000000000000000000000000000000000096
:101A5000000000000000000000000000005356439A
:101A6000616C6C00000000000000000044656275BD
:101A7000674D6F6E69746F72000000000000000017
:101A80000000000000000000000050656E64535626
:101A90000000000000000000005379735469636B7C
:101AA0000000000000000000444D41300000000034
:101AB00000000000000000444D4131000000000023
:101AC000000000000000444D413200000000000012
:101AD0000000000000444D41330000000000000001
:101AE00000000000444D41340000000000000000F0
:101AF000000000444D4135000000000000000000DF
:101B00000000444D413600000000000000000000CD
:101B100000444D41370000000000000000000000BC
:101B2000444D413800000000000000000000004467
:101B30004D41390000000000000000000000444D4D
:101B400041313000000000000000000000444D4121
:101B5000313100000000000000000000444D413120
:101B60003200000000000000000000444D4131330D
:101B700000000000000000000000444D413134002E
:101B8000000000000000000000444D41313500001D
:101B90000000000000000000444D415F4572726F7C
:101BA000720000000000004D434D000000000000E6
:101BB0000000000000004654464C000000000000F9
:101BC0000000000000526561645F436F6C6C6973D4
:101BD000696F6E004C56445F4C5657000000000081
:101BE0000000004C4C570000000000000000000006
:101BF00000005761746368646F67000000000000B4
:101C000000524E47000000000000000000000000ED
:101C1000493243300000000000000000000000498D
:101C2000324331000000000000000000000053506B
:101C3000493000000000000000000000005350493F
:101C40003100000000000000000000005350493245
:101C5000000000000000000000000043414E305F23
:101C60004F525F4D425F6275660043414E305F42A6
:101C700075735F4F666600000043414E305F4572EA
:101C8000726F72000000000043414E305F54785F75
:101C90005761726E696E6743414E305F52785F578D
:101CA00061726E696E6743414E305F57616B655F6D
:101CB00055700000005265736572766564353100B9
:101CC000000000005265736572766564353200006D
:101CD00000000043414E315F4F525F4D425F6275DD
:101CE000660043414E315F4275735F4F6666000088
:101CF0000043414E315F4572726F72000000000078
:101D000043414E315F54785F5761726E696E67432D
:101D1000414E315F52785F5761726E696E67434121
:101D20004E315F57616B655F5570000000526573FF
:101D30006572766564353900000000005265736590
:101D40007276656436300000000000554152543010
:101D50005F52585F54580000000055415254305FA4
:101D600045525200000000000055415254315F526C
:101D7000585F54580000000055415254315F45529D
:101D80005200000000000055415254325F52585F2B
:101D900054580000000055415254325F45525200E1
:101DA000000000000055415254335F52585F5458B0
:101DB0000000000055415254335F4552520000006C
:101DC00000000055415254345F52585F545800008F
:101DD000000055415254345F45525200000000004B
:101DE0000055415254355F52585F5458000000006E
:101DF00055415254355F45525200000000000041E9
:101E00004443300000000000000000000000414496
:101E100043310000000000000000000000434D506E
:101E2000300000000000000000000000434D503171
:101E30000000000000000000000000434D50320090
:101E40000000000000000000000046544D3000007B
:101E500000000000000000000046544D310000006A
:101E6000000000000000000046544D320000000059
:101E700000000000000000434D540000000000007E
:101E80000000000000005254430000000000000069
:101E90000000000000526573657276656438330097
:101EA0000000000050495430000000000000000015
:101EB0000000005049543100000000000000000004
:101EC00000005049543200000000000000000000F3
:101ED00000504954330000000000000000000000E2
:101EE0005044423000000000000000000000005597
:101EF0005342300000000000000000000000555375
:101F000042444344000000000000000000454E45EC
:101F1000545F313538385F54696D6572454E4554AC
:101F20005F5472616E736D69740000454E45545F75
:101F300052656365697665000000454E45545F450E
:101F400072726F72000000000049325330000000CE
:101F5000000000000000000053444843000000005F
:101F60000000000000000044414330000000000079
:101F70000000000000004441433100000000000068
:101F80000000000000545349300000000000000031
:101F9000000000004D43470000000000000000006A
:101FA0000000004C5054696D657200000000000094
:101FB000000052657365727665643130320000004E
:101FC00000504F525441000000000000000000008B
:101FD000504F52544200000000000000000000502A
:101FE0004F52544300000000000000000000504F1A
:101FF00052544400000000000000000000504F5206
:1020000054450000000000000000000052657365A8
:102010007276656431303800000000526573657275
:102020007665643130390000000052657365727660
:102030006564313130000000005265736572766569
:102040006431313100000000526573657276656459
:10205000313132000000005265736572766564317B
:10206000313300000000526573657276656431316A
:102070003400000000526573657276656431313555
:102080000000000052657365727665643131360078
:102090000000005265736572766564313137000067
:1020A0000000526573657276656431313800000056
:1020B0000052657365727665643131390000000045
:1020C00000F00F4040F00F4080F00F40C0F00F4094
:1020D00000F10F4066000A1D32000701640007107E
:1020E0006E000406780004088200040A8C00040CC8
:1020F0009600040EA0000410AA000412B4000414F8
:10210000BE000416C8000418D200041ADC00041C27
:10211000E100041DE600041EEB00041FF400031799
:10212000FA000318130101062C010214000109082A
:102130000090044000A0044000B0044000C00440EF
:1021400000D0044000A0064000B0064000C0064099
:1021500000D0064000A00E4000B00E4034353637A7
:1021600002040101540CFF1FA40CFF1F540CFF1F9D
:10217000540CFF1F540CFF1FF50BFF1FDC0BFF1F40
:10218000000000000000000000000000000000004F
:10219000000000000000000000000000000000003F
:1021A000DFF800F0F90BFF1F40B2DFF8981331F8A9
:1021B000201040B20128C0F26B8140B2162880F294
:1021C0006781DFF884230023137089B23D2904DA84
:1021D000DFF874230023537078E089B2792904DA98
:1021E000DFF864230123537070E089B2B52904DA63
:1021F000DFF854230223537068E089B2F12904DA2E
:10220000DFF844230323537060E089B2B1F5967F71
:1022100004DCDFF834230423537057E089B2B1F5AE
:10222000B47F04DCDFF82023052353704EE089B22D
:10223000B1F5D27F04DCDFF810230623537045E0AC
:1022400089B2B1F5F07F04DCDFF8FC22072353707C
:102250003CE089B2B1F5077F04DCDFF8EC2208230B
:10226000537033E089B2B1F5167F04DCDFF8D82271
:10227000092353702AE089B2B1F5257F03DCB24A05
:102280000A23537022E089B2B1F5347F03DCAE4AF1
:102290000B2353701AE089B2B1F5437F03DCAA4ADD
:1022A0000C23537012E089B2B1F5527F03DCA64AC9
:1022B0000D2353700AE089B2B1F5617F03DCA24AB5
:1022C0000E23537002E0A04A0F23537089B21A29DB
:1022D00003DA9D4A0023937069E089B2332903DA57
:1022E000994A0123937062E089B24C2903DA964A35
:1022F000022393705BE089B2652903DA924A0323D3
:10230000937054E089B27E2903DA8F4A04239370D4
:102310004DE089B2972903DA8B4A0523937046E092
:1023200089B2B02903DA884A062393703FE089B264
:10233000C92903DA844A0723937038E089B2E22975
:1023400003DA814A0823937031E089B2FB2903DA6A
:102350007D4A092393702AE089B2B1F58A7F03DAB6
:10236000794A0A23937022E089B2B1F5967F03DCA3
:10237000754A0B2393701AE089B2B1F5A37F03DA93
:10238000714A0C23937012E089B2B1F5AF7F03DC80
:102390006D4A0D2393700AE089B2B1F5BC7F03DA70
:1023A000694A0E23937002E0674A0F23937089B243
:1023B0001A2903DA644A0023D37069E089B2332909
:1023C00003DA614A0123D37062E089B24C2903DA4F
:1023D0005D4A0223D3705BE089B2652903DA5A4A69
:1023E0000323D37054E089B27E2903DA564A0423CA
:1023F000D3704DE089B2972903DA534A0523D3708D
:1024000046E089B2B02903DA4F4A0623D3703FE091
:1024100089B2C92903DA4C4A0723D37038E089B25C
:10242000E22903DA484A0823D37031E089B2FB2954
:1024300003DA454A0923D3702AE089B2B1F58A7FCD
:1024400003DA414A0A23D37022E089B2B1F5967FBC
:1024500003DC3D4A0B23D3701AE089B2B1F5A37FA8
:1024600003DA394A0C23D37012E089B2B1F5AF7F99
:1024700003DC354A0D23D3700AE089B2B1F5BC7F85
:1024800003DA314A0E23D37002E02F4A0F23D370B0
:10249000704710B50400200040B2FFF785FE2B48BE
:1024A000007810F0FD00294908702848007850F0A5
:1024B0001000264908702648B82101702548007888
:1024C000C006FBD423480078C0F38100C0B20228C4
:1024D000F8D11D48C3781C4882781B4841781A48B7
:1024E0000078FFF75DFE64B2164810EB8400807838
:1024F00010F007001849087064B2124810EB84000D
:10250000C07810F01F0050F04000144908701148C6
:1025100000788006FBD50F4800784006FBD50C48B4
:10252000007810F03F000A4908700A480078C0F3AC
:102530008100C0B20328F8D164B2024830F8240008
:10254000C0B210BD2C0BFF1F840BFF1F01400640C3
:102550000040064006400640044006400540064054
:102560002DE9F84304000D0064B2002C08D0022CC1
:102570002CD018D3042C4FD03BD3052C5FD071E066
:10258000DFF81002006850F48060DFF8081208607D
:102590004FF44071662000F009F94FF44071672054
:1025A00000F004F95EE0DFF8EC01006850F4006030
:1025B000DFF8E01108604FF44071432000F0F6F8B6
:1025C0004FF44071442000F0F1F84BE0DFF8C40113
:1025D000006850F48050DFF8BC1108604FF440717F
:1025E000632000F0E3F84FF44071622000F0DEF861
:1025F00038E0DFF8A001006850F40050DFF89411D3
:1026000008604FF44071502000F0D0F84FF4407152
:10261000512000F0CBF825E0DFF87C01006850F491
:102620008060DFF8741108604FF440714E2000F0B4
:10263000BDF84FF440714F2000F0B8F812E0DFF819
:102640005801006850F40060DFF84C1108604FF446
:102650004071892000F0AAF84FF44071882000F002
:10266000A5F8FFE764B2DFF8340150F82400C07821
:1026700010F0F30064B2DFF8241151F82410C87090
:1026800064B2DFF8180150F8240064B2DFF80C11CE
:1026900051F824108978817064B2002C02D064B2A1
:1026A000012C07D1DFF8F80000684FF47A71484335
:1026B000814606E0DFF8EC0000684FF47A71484389
:1026C00081462801B9FBF0F00600B6B2B6F5005F0E
:1026D00002DB41F6FF700600B9FBF5F0B6B2B0EBD5
:1026E00006100700BFB2202F03DBDC212E4800F0CC
:1026F00083F864B2294850F82400007810F0E00014
:102700008046B6B2300A10F01F0050EA080064B2EA
:10271000224951F82410087064B2204850F824006F
:10272000467064B21D4850F82400807A10F0E00032
:10273000804664B2194850F8240017F01F0151EA8E
:102740000801817264B2154850F82400007C50F0F2
:10275000880064B2114951F82410087464B20F481B
:1027600050F82400C07850F00C0064B20B4951F8C6
:102770002410C870BDE8F18340B2084A52F8202006
:1027800012791206F8D540B2044A52F82020D171CD
:102790007047000034800440288004409C0BFF1FD9
:1027A000480CFF1F500CFF1F002D000010B4104AF2
:1027B00012684FF40073C0B24409A3401A430C4B93
:1027C0001A60C0B242110B4B53F82220012310F0C3
:1027D0001F04A340C2F8A030C0B210F01F02C0B264
:1027E0004311044C54F8233043F8221010BC7047B6
:1027F00038800440880BFF1F38B504000D0000200E
:1028000000F038F82A002100164800F06BF800208C
:1028100000F04DF84FF47A7000F091F8F2E738B517
:1028200004000D00210049B20320FFF7A5FF20009E
:1028300032BD10B50C480468012000F01BF80120DF
:1028400000F035F8E4B20F20084900FB0412E4B2AE
:102850002100074800F046F84FF47A7000F06FF856
:10286000EDE700009C2D000004ED00E01004FF1FC8
:10287000882C000010B5040064B2042C07DA012291
:10288000012164B21648205C00F070F80EE00420CC
:1028900004002000441E40B2002807D0012201217C
:1028A00064B20F48205C00F061F8F2E710BD10B58B
:1028B000040064B2042C05DA64B20948205C00F01C
:1028C000ACF80CE0042004002000441E40B20028B4
:1028D00005D064B20248205C00F09FF8F4E710BD18
:1028E000B40BFF1F0EB400B582B003A900910246DD
:1028F00000AB0121034878440A30FDF78DFD06BC8A
:102900005DF810FB0905000010B50400002C15D07F
:10291000B4F1807F03D329210F48FFF76DFF0F48E3
:10292000002101600E4804600E48002101600B4840
:102930000521016009480068C003FBD510BD10B532
:1029400004002000441E002804D007480068FFF758
:10295000DBFFF6E710BD0000482C000010E000E0AF
:1029600014E000E018E000E0480CFF1F70B5040020
:102970000D0016004FF480712000C0B2FFF716FF63
:102980006DB2002D11D1E4B26011324951F820002E
:10299000E4B261112F4A52F821104969012214F062
:1029A0001F039A409143416136E0E4B26011294926
:1029B00051F82000E4B26111264A52F82110496909
:1029C000012214F01F039A4011434161F6B2002E18
:1029D00011D1E4B260111F4951F8200000680121B3
:1029E00014F01F0291408843E4B26111194A52F871
:1029F0002110086010E0E4B26011164951F820007F
:102A00000068012114F01F0291400843E4B26111F3
:102A1000104A52F82110086070BD10B50400E4B2ED
:102A200060110C4951F82000406914F01F01C840A2
:102A3000C00703D47B210848FFF7DEFEE4B2601133
:102A4000044951F82000012114F01F029140C16097
:102A500010BD0000180BFF1FC42C000080B500F053
:102A600093F800F028F800F008F801220121042072
:102A7000FFF77CFF00F0A8F8FEE780B50420FFF721
:102A800008FD33490860324800684FF47A714843C2
:102A9000304908602F4800682F490968C1F3036175
:102AA000491CB0FBF1F02D4908605FF4E1310320CF
:102AB000FFF756FD01BD2DE9F84329482949884211
:102AC0000DD000208046B8F5826F08D224482549F1
:102AD00051F8281040F8281018F10108F3E72048B1
:102AE00000F074F820480700204806002048040041
:102AF000A01B80464046B0F10108002804D0307881
:102B00003870761C7F1CF5E71A4881461A48050084
:102B1000B5EB090080464046B0F10108002805D019
:102B2000002089F8000019F10109F4E7134814495D
:102B3000144A531A98464346B3F10108002B04D0B7
:102B40000B780370491C401CF5E7BDE8F1830000D9
:102B50004C0CFF1F480CFF1F44800440500CFF1F0B
:102B60000000FF1F000000001004FF1FB819000044
:102B7000A0210000480CFF1FA40CFF1FF80BFF1F33
:102B8000F82B0000482C000080B500F008F80C4835
:102B900000884FF6FE7108400949088001BDEFF337
:102BA000118072B607494CF220520A8005494DF651
:102BB00028120A80C0B2002800D162B67047000017
:102BC000002005400E200540FEE7000010B504007F
:102BD0004FF4007094FBF0F101FB1041002903D089
:102BE0001E210348FFF708FE0248046010BD0000E4
:102BF0003C2D000008ED00E0F0B4114E36683400C2
:102C00000F4E366856F47F060D4F3E600E0616F0E6
:102C1000706656EA0076170517F470073E431F04E6
:102C200017F470273E43074F3E6000263500EDB293
:102C30009D4201D26D1CFAE7014E3460F0BC704732
:102C400000F0014044800440433A5C557365727360
:102C50005C4D725F4C5C4465736B746F705C467264
:102C600065657363616C655F4D444B36305C4368EA
:102C700069705C7372635C4D4B36305F537973548B
:102C800069636B2E630000000A2A2A2A2A6465669B
:102C900061756C745F69737220656E7465726564CA
:102CA000206F6E20766563746F722025642A2A2A4D
:102CB0002A2A0A0A257320496E7465727275707427
:102CC00000000000433A5C55736572735C4D725F9F
:102CD0004C5C4465736B746F705C467265657363BE
:102CE000616C655F4D444B36305C436869705C7362
:102CF00072635C4D4B36305F6770696F2E63000006
:102D0000433A5C55736572735C4D725F4C5C44650D
:102D1000736B746F705C467265657363616C655F3D
:102D20004D444B36305C436869705C7372635C4D34
:102D30004B36305F756172742E630000433A5C5508
:102D4000736572735C4D725F4C5C4465736B746F3A
:102D5000705C467265657363616C655F4D444B36AC
:102D6000305C436869705C7372635C6D6973632E79
:102D70006300000010B5074979441831064C7C44C3
:102D8000163404E00A68081D511888470146A1421C
:102D9000F8D110BD2C0000003800000041737365AD
:102DA0007274696F6E206661696C656420696E205B
:102DB0002573206174206C696E652025640A00000B
:102DC0004BE2FFFF5C000000480CFF1F000000000A
:102DD00000F00BF8002801D0FFF7CCFF0020C04620
:102DE000C046FFF7F1FE00F002F80120704700F046
:102DF00001B800000746384600F002F8FBE7000083
:102E000001491820ABBEFBE72600020038B5044696
:102E10000D46284600F006F8A84218BF00242046B8
:102E200032BD00000149FFF7FABC00BFB80BFF1F1D
:102E3000C046C046C046C046FFF7CAFF00000000BB
:102E40000000000000000000000000000000000082
:102E50000000000000000000FFFFFFFFFFFFFFFF7A
:102E60000000000000000000000000000000000062
:102E70000000000000000000000000000000000052
:102E800000000000FFFFFFFFFFFF00000000000048
:102E90000000000000000000000000000000000032
:102EA0000000000000000000000000000000000022
:102EB0000000000000000000000000000000000012
:042EC000000000000E
:0400000500002E3198
:00000001FF
